:020000040800F2
:1000000010110020BD01000839560008FD2B000822
:100010003556000869060008E95F00080000000086
:10002000000000000000000000000000F55E000875
:1000300091060008000000003D560008F95E000827
:10004000D7010008D7010008D7010008D701000830
:10005000D7010008D7010008D7010008D701000820
:10006000D7010008D7010008D7010008D701000810
:10007000D7010008D7010008D7010008D701000800
:10008000D7010008D7010008AD050008D701000816
:10009000D70100086D060008D7010008D701000845
:1000A000D7010008D7010008D7010008B55F000894
:1000B000C15F0008D7010008D7010008D701000878
:1000C000D7010008D7010008D7010008D7010008B0
:1000D000D7010008D7010008D7010008D7010008A0
:1000E000D7010008D7010008D701000800F002F886
:1000F00000F054F814A696E8000CB244B344DA4574
:1001000001D100F04BF8BAE80F000FA696E83000D6
:10011000A5EB040504EB0607AAEB0704A7F101070A
:100120004FEA15154FEA3414A4F10104AC4201D38F
:1001300000F034F813F0010F18BFFB1A43F001036D
:1001400000F001F8DBE71847A0840000C08400003D
:10015000103A24BF78C878C1FAD8520724BF30C8F3
:1001600030C144BF04680C60704700007047000055
:100170000023002400250026103A28BF78C1FBD8B0
:10018000520728BF30C148BF0B6070471FB59DE8BC
:10019000030000F0EDF81FBD10B510BD00F084F9AC
:1001A0001146FFF7F3FF06F08FFC00F0A2F903B44D
:1001B000FFF7F2FF03BC00F0D3F9000009488047C5
:1001C00009480047FEE7FEE7FEE7FEE7FEE7FEE739
:1001D000FEE7FEE7FEE7FEE704480549054A064B51
:1001E00070470000B15F0008ED0000081007002014
:1001F00010110020100D0020100D002070B50646D3
:1002000000F09AF8056806F10B0020F00704B442EC
:100210009CBF002070BD2B466A68BAB11068A0422E
:1002200010D304F1080188423CBF5068586007D3DE
:100230005168101941601168091B01605860146011
:10024000101D70BD13465268002AE7D1214628468A
:1002500000F07AF80028DED170BD70B50446051FA5
:1002600000F06AF80068002C14BF446870BD002CD0
:1002700018BFAC423CBF20466468F8D301680A1836
:10028000AA4218BF456003D12A680546114401609F
:1002900028684119A1421CBF6C6070BD616869602B
:1002A00021680844286070BD032A40F2308010F0B5
:1002B000030C00F0158011F8013BBCF1020F624401
:1002C00098BF11F801CB00F8013B38BF11F8013B92
:1002D000A2F1040298BF00F801CB38BF00F8013B3F
:1002E00011F0030300F08480083AC0F0088051F850
:1002F000043B083A51F804CBA0E80810F5E7121DBA
:100300005CBF51F8043B40F8043BAFF30080D207D8
:1003100024BF11F8013B11F801CB48BF11F8012BA4
:1003200024BF00F8013B00F801CB48BF00F8012BC7
:10033000704770477047704700487047380000208A
:10034000704770477047704738B504460A4600202A
:100350006946AFF30080002808BF38BD0246009907
:10036000204600F07FF8012038BD012000F094B84D
:10037000F8B5AFF30080054600200C460C2000BF06
:100380000646A819A0420DD9324669460020AFF3AF
:100390000080070008BF00F07FF80098A04218BF57
:1003A0000546C419FFF7C8FF05600746F01D20F099
:1003B00007004619284600F00AF8B44208BFF8BD05
:1003C000A21B31463868BDE8F84000F04BB8002168
:1003D0000160416070470C20704710B500F03EF896
:1003E000006810BD10B5044600F038F8046010BD78
:1003F00010B5203AC0F00B80B1E81850A0E81850B2
:10040000B1E81850A0E81850203ABFF4F5AF5FEA01
:10041000027C24BFB1E81850A0E8185044BF18C9A6
:1004200018C0BDE810405FEA827C24BF51F8043B4D
:1004300040F8043B08BF7047D20728BF31F8023BA1
:1004400048BF11F8012B28BF20F8023B48BF00F835
:10045000012B70470048704730000020004870476B
:1004600030000020034640688C46002818BF8842B0
:100470003CBF03464068F8D318681844884207D048
:100480000CF1030020F00700001D411A521A01462A
:10049000081D0A60FFF7E1BE10B500F039F8BDE8AD
:1004A000104000F02FB870477546FFF7D3FFAE46F7
:1004B00005006946534620F00700854618B020B570
:1004C000FFF78AFEBDE820404FF000064FF000071E
:1004D0004FF000084FF0000BAC46ACE8C009ACE8A8
:1004E000C009ACE8C009ACE8C00921F007018D469D
:1004F000704710B50446AFF300802046BDE81040B9
:10050000FFF755BE002801D000F02AB87047000060
:1005100010B5012805D0002103A000F027F8012024
:1005200010BD09A1F8E7000053494752544D454D0D
:100530003A204F7574206F662068656170206D6584
:100540006D6F7279000000003A2048656170206D7F
:10055000656D6F727920636F727275707465640077
:1005600001491820ABBEFEE72600020070B5054623
:100570000C460A2000E06D1C00F011F835B1287817
:100580000028F8D102E0641C00F009F814B12078CA
:100590000028F8D1BDE870400A20AFF3008008B50C
:1005A00069468DF800000320ABBE08BD40F21C6018
:1005B000C2F2000000F038BAB0B582B004460020A4
:1005C000019021688A68D2074BD1886840F0010009
:1005D000886040F20800C2F2000000684DF68361B6
:1005E000C4F21B31A0FB0101880C01900198A0B15D
:1005F000019801380190019878B101980138019073
:10060000019850B1019801380190019828B10198E2
:100610000138019001980028EAD100F0F5FF216827
:100620008968C9071CD1054603E000BF8068C00780
:1006300016D100F0E9FF411B20680329F6D3816839
:10064000C907F3D1A06A40F01000A062E06A40F050
:100650000100E062002084F82400012002B0B0BD57
:10066000002002B0B0BD0000FEE7000010B58AB067
:1006700040F24C64C2F2000403AA01AB2046002100
:1006800000F0C2FB204600F057FC0AB010BD00008D
:100690007047000048F2C854C0F60004EFF3108021
:1006A00072B600BF0020214605F0F8F8FAE7000016
:1006B0002DE9F04181B00022009290F82420012A17
:1006C00006D14FF0020E704601B0BDE8F08100BFC8
:1006D0008368D1F804C0012280F82420D3B1D1F876
:1006E00010E00368BCEB0E0404EB84049D6B04F182
:1006F0000F044FF01F0202FA04F225EA020222F46C
:1007000040151BD99D634FF0000E9A68D2072BD17C
:1007100023E000BFBCF1010F40F0948003684FF06C
:10072000000E9A6B0D686FF3150242EAC5329A63A8
:100730004FF0010C9A68D2070FD015E000220E6826
:10074000CFF6F07202EB0E52A64032432A439A6370
:100750004FF0000E9A68D20706D19A6847F201045A
:100760008D69A2432A439A604D7D03F10408012D4F
:1007700000F128022AD18E692027B6F5E04F1646EF
:1007800014BF4FF0010E464608BF4FF4806734682F
:100790003C4334600C7D012C1BD00A68092A02EB13
:1007A000420427D9DD681E3C07268F68A640B54362
:1007B00007FA04F42C4322F00105102DDC6022D14D
:1007C0009C6844F400049C6001241DE00C7D012C15
:1007D000E3D12024002D14BF4FF0010E424608BF84
:1007E0004FF4805415682C4314600A68092A02EB00
:1007F0004204D7D81D6907268F68A640B54307FA7B
:1008000004F42C431C610024ACF1010720251426BC
:10081000032F38BF06EB87055F5940F6FF76C9689E
:10082000B7433943002C595148D042F20041C4F239
:1008300001018B4212D0816A4FF0010E41F020017C
:1008400081623BE00368826A4FF0010E42F02002B1
:1008500082629A68D2073FF480AF85E7896809020F
:100860002CD49968102A41F40001996026D140F2F5
:100870000801C2F2000109684DF68362C4F21B321E
:10088000A1FB0212910C01EB81014900009100993A
:10089000A1B1009901390091009979B1009901390C
:1008A0000091009951B1009901390091009929B145
:1008B00000990139009100990029EAD1002180F8BE
:1008C0002410704601B0BDE8F0810000016842F2DA
:1008D0000042C4F20102914218BF7047B0B5012135
:1008E000044600F039F840F2A205C2F20005288063
:1008F0002046022100F030F840F2545EC2F2000EB1
:100900009EF8C120688022B32A88BEF8B4304FF622
:100910000F7CD21A4FF4DC7302FB03F4C0F6F07CB8
:1009200084FB0C4102FB1311BEF8B62080B2801A82
:1009300000FB03F282FB0C2400FB13400A1202EBC3
:10094000D171021202EBD070E88008444042A980C5
:100950002881BDE8B0407047006802393C2340223E
:10096000032938BF02EB8103C058704710B5044615
:1009700090F82400012804BF022010BD012084F853
:1009800024002046FFF718FE20B1002184F824102F
:1009900010BD00BF42F204422168A06AC4F2010205
:1009A00043F20103984302F57F7300F580509942AA
:1009B000A06203D0A06A20F4801006E0106810F452
:1009C000702FF7D0A06A40F48010A062A06AC00522
:1009D0005CBF0020E062002084F824006FF0040473
:1009E0000C604C6844F080044C604C68640548BF5F
:1009F00010BD886800F4E040B0F5E04F0CD199429A
:100A000006D0886840F402108860002010BD00BF46
:100A1000106810F4702FF4D0886840F400408860AB
:100A2000002010BD7047000070B5044600680568DE
:100A30004668B10627D515F0020124D0A16AC9067F
:100A400003D4A16A41F40071A162816801F46021BC
:100A5000B1F5602F10D1217B71B9416821F02001DF
:100A60004160A06A20F48070A062A06AC00403D430
:100A7000A06A40F00100A0622046FFF7D3FF206883
:100A80006FF012010160310633D515F0040130D04A
:100A9000A16AC90603D4A16A41F40051A162816828
:100AA00001F4E041B1F5E04F10D1416821F080013F
:100AB0004160A06A20F48050A062A06AC00511D4F1
:100AC000A06A40F00100A0620CE000BF4168490547
:100AD00008D4816801F46021B1F5602F02D1217B37
:100AE0000029E2D02046FFF7F1FE20686FF00C01EC
:100AF000016070060ED515F0010008BF70BDA06A38
:100B000040F48030A062204600F0B2F820686FF018
:100B10000101016070BD0000002804BF0120704782
:100B2000B0B50446806A28B121688868C0070CD136
:100B300015E000BF0020E06284F82400204600F0A9
:100B400099F821688868C00709D0886820F00100FA
:100B5000886000F059FD21688A68D20726D1A06A12
:100B6000C0063AD4A06A41F2021290430230A06259
:100B7000E069D4E9013240EA030C531EB3FA83F36F
:100B80005D091346B2F5807F18BF2B02207D257BBF
:100B900001284CEA45002CD135B3A56A45F0200563
:100BA000A562E56A45F00105E56222E0054602E03E
:100BB0008868C007D3D000F027FD401B21680328B8
:100BC000F6D38868C007F3D0A06A40F01000A06296
:100BD000E06A40F00100E062A06AA06A40F0100004
:100BE000A0620120B0BD00BFA56903EB4533A3F5AA
:100BF000C0534D68B2F5807F25F4694543EA05038B
:100C00004B608B684FF2FD75CFF6E17503EA050383
:100C100043EA00038B6001D0012A07D12269002337
:100C2000CFF6F07303EB025201E000BF0022CB6A63
:100C300023F470031A43CA62896840F6FE62CFF655
:100C40001F721140814207D10020E062A16A012297
:100C500062F30101A162B0BDA06A40F0100020F073
:100C60000200A062E06A40F00100E0620120B0BD35
:100C70007047000080B586B0014640F60000C4F21F
:100C80000100096800F5E05291424FF00001CDE902
:100C90000411CDE9021101D006B080BD41F2180166
:100CA000C4F202010A6842F400720A600A6802F49F
:100CB00000720192019A0A6842F004020A6009680F
:100CC00001F00401019101990321CDE9021102A96A
:100CD00000F07EFB12200021002200F015FD122002
:100CE00000F000FD06B080BD90F82020013A012AF6
:100CF00008D8006800F1140200201368194311603D
:100D0000704700BF00F1240201204FF480211368D6
:100D10001943116070470000026890F82030013BD1
:100D2000012B29D8B0B5D2F80002012340F0010010
:100D3000C2F80002D1F814E0CC690EF01F0003FAEB
:100D400000F0D2F81C326FEA000C8343012CC2F889
:100D50001C3217D06CBBD2F80C3203EA0C03C2F879
:100D60000C32CB688C8844EA034302EBCE04C4F80F
:100D700040320B4615E000BF416A41F480214162D8
:100D800001207047D2F80C320343C2F80C320B68D2
:100D90008C8844EA034302EBCE04C4F8403201F1EC
:100DA0000C038D681B8802EBCE0443EA0543C4F8AC
:100DB0004432D2F804328C6943EA0005D1F810E0DD
:100DC000096A002C08BF03EA0C05C2F80452D2F8E5
:100DD0001432BEF1000F43EA000408BF03EA0C041A
:100DE0000129C2F8144204D1D2F81C120843C2F8F7
:100DF0001C02D2F8000220F00100C2F8000200201C
:100E0000B0BD000070470000B0B590F82040013C34
:100E1000012C7DD8D0F800C000290CBFDCF80C40B4
:100E2000DCF81040A4077DD00CF5D8754FEA011C02
:100E300055F80C4014F00404946055F80CE005EBF0
:100E4000011C19BF4FEADE0555604FEA5E5515607B
:100E5000DCF80050E64605F00205D5605EF8044F68
:100E600024075ABFDEF8004004F00F040824146180
:100E7000DEF800400029C4F307249461DEF8005036
:100E80004FEA15455561DCF808201A70026802EB3C
:100E90000112D2F8B8214FEA12225A70026802EB0E
:100EA0000112D2F8B8214FEA12429A70026802EB9E
:100EB0000112D2F8B8214FEA1262DA70026802EB2E
:100EC0000112D2F8BC211A71026802EB0112D2F8A9
:100ED000BC214FEA12225A71026802EB0112D2F8C9
:100EE000BC214FEA12429A71026802EB0112D2F859
:100EF000BC214FEA1262DA7100680CBF00F10C01EC
:100F000000F11001002020220B681A430A60B0BDD6
:100F100000F1240101204FF480220B681A430A607B
:100F2000B0BD00BF00F1240101204FF400120B6896
:100F30001A430A60B0BD00002DE9F04F81B00446AD
:100F400000684669D0F804908768D0F80CB0D0F8F3
:100F500010A0D0F81880F10704D1002530071DD467
:100F600024E000BFF90710D00121BA07816009D43D
:100F7000780700F1AF80380700F1B680204600F016
:100F800005FA02E0204600F003FA0025F80500F11A
:100F90008780F80300F1B180300707D51BF01000FF
:100FA00004D0206845F400751021C160700708D591
:100FB0001BF0080005D020680821C160204600F021
:100FC000ADF9B00706D52068C068800702D020467A
:100FD00000F0A6F9700607D51AF0100004D02068BA
:100FE00045F4806510210161B00608D51AF00800AB
:100FF00005D0206808210161204600F093F9F00631
:1010000006D520680069800702D0204600F08CF9E0
:10101000B00308D519F0100005D0206810214160F8
:10102000204600F083F9F00308D519F0080005D038
:10103000206808214160204600F0B4F9300440F1F6
:101040009B805FEA497040F1948006F4807008EA62
:10105000102028435FEA8871014648BF41F0020131
:10106000B20558BF01465FEA48700D4648BF45F0DB
:101070000405700558BF0D46300540F17A8018F020
:10108000700000F076801038000905286CD8DFE881
:1010900000F003655D61596945F0080564E000BF33
:1010A00020684FF48071BA0581600BD4780515D49F
:1010B00038051DD4204600F06DF9F8037FF56CAFBC
:1010C0001BE000BF204600F067F9F8037FF564AF2E
:1010D00013E000BF4FF4006558E700BF05F5005569
:1010E000F8037FF559AF08E04FF480554EE700BF95
:1010F00005F58045F8037FF54FAF20684FF4803148
:10110000BA0381600AD4780310D4380314D420467B
:1011100000F044F930073FF541AF47E7204600F0C3
:101120003FF930073FF53AAF40E700BF05F500450E
:1011300030073FF533AF39E705F5803530073FF528
:101140002DAF33E745F080050EE000BF45F02005E8
:101150000AE000BF45F0400506E000BF45F010057D
:1011600002E000BF45F480752068816921F07001BC
:10117000816120680421416055B1606A40EA05013F
:101180002046616201B0BDE8F04FFFF73BBE00BFF3
:1011900001B0BDE8F08F0000002804BF01207047B7
:1011A000B0B5044690F8200010B9204600F06EF863
:1011B0002068016841F00101016000F025FA054650
:1011C00020684168C90705D100F01EFA401B0B28B2
:1011D000F6D310E0016821F00201016000F014FA7A
:1011E000054600BF2068416889070DD500F00CFA5C
:1011F000401B0B28F6D3606A052140F40030606282
:10120000012084F82010B0BD217E0268012922F05F
:10121000800208BF80320260617E0268012922F0EC
:10122000400208BF40320260A17E0268012922F01C
:10123000200208BF20320260E17E0268012922F00C
:10124000100218BF10320260217F0268012922F0CB
:10125000080208BF08320260617F0268012922F09B
:10126000040208BF04320260D4E901C2D4E90335A4
:1012700061691A432A431143ACF101021143C16170
:1012800000200121606284F82010B0BDB0B586B0A6
:1012900040F60004C4F201040068A4F524420021D1
:1012A00090420591CDE90311029101D006B0B0BD85
:1012B00041F21800C4F20200426802AD42F000722E
:1012C0004260426802F000720192019A026842F0A4
:1012D00004020260006800F00400019001984FF4DD
:1012E0000060CDE9020104912046294600F070F823
:1012F0004FF4805002900220039003200590204676
:10130000294600F065F815200021002200F0FCF9C4
:10131000152000F0E7F906B0B0BD000070470000EE
:1013200070470000704700007047000070470000E1
:10133000B0B5044690F8200001281DD1022084F8A1
:1013400020002068016821F00101016000F05CF9D3
:10135000054600BF20684068C00713D000F054F96C
:10136000401B0B28F6D3606A40F400306062052011
:1013700084F820000120B0BD606A40F40020606263
:101380000120B0BD00206062B0BD000070470000C9
:101390007047000070470000704700007047000071
:1013A0007047000070470000B0B5044600F02CF90B
:1013B000054640F20000C2F200000078611C18BF30
:1013C000044400BF00F020F9401BA042FAD3B0BD96
:1013D0002DE9F04F82B00E68002E00F0FD8041F242
:1013E0000042C4F20102042340F2004E904208BFC2
:1013F00003234FF6FF7CC4F2010E00930024012367
:10140000C1F2100C4FF0000A4FF000094BE000BF92
:1014100041F20002C4F20102009F904208BF02277D
:1014200004F00C030F229A402BEA020207FA03F39E
:101430004FEA9A051A4346F825204E6840F20C45BB
:10144000F202DEF8082054BF22EA080242EA08024B
:10145000C4F20105CEF808202A68B30254BF22EA7C
:10146000080242EA08022A60B303DEF8042054BFEF
:1014700022EA080242EA0802F303CEF80420DEF86A
:1014800000204FF0010354BF22EA080242EA08029A
:10149000CEF800200E680AF1010A36FA0AF204F1C9
:1014A000040400F0998003FA0AFB16EA0B08F1D055
:1014B0004E68664512DC122E56D8DFE806F0350B72
:1014C0004D495555555555555555555555555545F0
:1014D000510000BFD1F80C9046E000BF4FF6FF72FC
:1014E000C1F2210296420FDC0022C1F211029642A3
:1014F0001AD00022C1F21202964215D00022C1F287
:101500002102964210D02FE00022C1F22202964220
:101510000AD00022C1F23102964205D00022C1F267
:101520003202964220D100BF8A684AB1012A14BF14
:10153000C0F814B0C0F810B04FF0080914E000BFB4
:101540004FF0040910E000BFCA6802F104090BE083
:101550004FF0000908E000BFCA6802F1080903E083
:10156000CA6802F10C0900BF02462646B8F5807F22
:1015700024BF0432203E17680F25B54027EA050531
:1015800009FA06F635431560CA79D2067FF582AFAF
:1015900041F21803C4F202031A68AEF57E7642F0F7
:1015A00001021A601A6802F001020192019A2AF0FF
:1015B000030256F802B040F60002C4F20102904263
:1015C00008D040F60042C4F2010290427FF420AFFE
:1015D000012725E7002723E702B0BDE8F08F0000D0
:1015E0008068084018BF012070470000C26802EA06
:1015F0000103914341EA034101617047002A08BF9A
:10160000090401617047000040F20870C2F2000056
:101610000068704740F2000040F20871C2F200001A
:10162000C2F2000100780A681044086070470000A8
:1016300080B542F20000C4F20200016841F01001DE
:101640000160032000F08CF80F2000F005F800F096
:1016500027F8002080BD000070B540F20006C2F2FD
:10166000000640F208013278C2F200014FF47A73AA
:101670000968B3FBF2F20446B1FBF2F1084600F050
:10168000DFFB0F2C4FF0010508D838B94FF0FF30C1
:1016900021460022002500F037F87460284670BD0E
:1016A00082B041F21800C4F202000168022241F047
:1016B00001010160016801F0010101910199416896
:1016C00041F080514160406800F0805000900098E7
:1016D0000420C4F20100016862F31A61016002B0E3
:1016E00070470000002848BF704700F01F0101222A
:1016F00002FA01F11C2202EAD0004EF20012CEF2F0
:10170000000281507047000010B54EF60C5CCEF21E
:10171000000CDCF80030C3F3022E8EF00704042C1A
:1017200028BF0424BEF103034FF0FF3E0EFA04F479
:1017300038BF0023A14399400EFA03F39A431143A3
:1017400000F00F0200F160430901043A03F564431D
:101750006244002848BF02F10C03197010BD00005C
:101760004EF60C51CEF200010A684FF6FF031A4004
:1017700060F30A2242F0806040F0FD70086070471C
:101780002DE9F04182B00446007841F21C06C00702
:10179000C4F202064AD030685FEAC00808D4306854
:1017A00040F080503060306800F080500190019827
:1017B00047F20007C4F200073868C00512D4386841
:1017C00040F480703860FFF71FFF05463868C00599
:1017D00008D4FFF719FF401B6428F7D9032002B093
:1017E000BDE8F081706810F4407012D0616801F4B7
:1017F000407188420DD0706840F24042C4F24222EB
:10180000012320F4407113600023C007136071604E
:1018100026D17068616820F440700843B8F1000F69
:10182000706003D4306820F08050306020688107F9
:1018300007D556F8181CA26821F44041114346F818
:10184000181CC00607D556F8180CE16820F4800073
:10185000084346F8180C002002B0BDE8F08100BF34
:10186000FFF7D2FE054641F2883700BF7068800757
:10187000CFD4FFF7C9FE401BB8424FF00300F5D9A3
:10188000EAE70000002804BF012070472DE9F0437B
:1018900081B042F20008C4F202080446D8F8000001
:1018A0000D4600F0070081420CD9D8F8000020F066
:1018B00007002843C8F80000D8F8000000F007002F
:1018C000A8426CD1206841F204098107C4F20209E0
:1018D00017D5410705D5D9F8001041F4E061C9F8E2
:1018E0000010010705D5D9F8001041F46051C9F87E
:1018F0000010D9F80010A26821F0F0011143C9F8D6
:101900000010C00742D1D8F8000000F0070085425F
:101910000CD2D8F8000020F007002843C8F80000D7
:10192000D8F8000000F00700A84238D1206841072D
:1019300007D5D9F80010E26821F4E0611143C9F835
:101940000010000708D5D9F80000216920F4605084
:1019500040EAC100C9F80000D9F8002002F00C00EC
:10196000082841F20020C0F27A004DD148F25853C5
:10197000C2F38341C0F60003595CD20338D440F669
:101980000010C0F23D0048433EE000BF606859F8D7
:10199000041C022808D0012826D1890306D401207E
:1019A00001B0BDE8F08300BF8901F8D5D9F8001077
:1019B00021F003010843C9F80000FFF725FE0646A1
:1019C00041F28837D9F80000616800F00C00B0EBF4
:1019D000810F98D0FFF718FE801BB842F2D9032080
:1019E00001B0BDE8F08300BF8907D8D5DEE700BFAE
:1019F000D9F8002048F25053C2F34042C0F6000329
:101A00009A5C4843B0FBF2F0D9F8001048F240521B
:101A1000C1F30311C0F60002515C40F2080220FA43
:101A200001F140F20400C2F200000068C2F20002BC
:101A30001160FFF711FE002001B0BDE8F083000047
:101A4000002804BF012070472DE9F04182B0044610
:101A5000007841F20006C007C4F202060CD070689C
:101A600000F00C00042840F081803068800303D52A
:101A70006068002800F04681207880071BD57068D8
:101A800010F00C0F09D0706800F00C00082840F02E
:101A900087807068C00300F183803068800703D5B9
:101AA0002069012840F02E813068616920F0F8003B
:101AB00040EAC10030602078000713D42078400746
:101AC0002CD4E569002D00F01881706800F00C003E
:101AD000082840F0A780012D40F00481012002B0C9
:101AE000BDE8F081A069002800F084800020C4F2E5
:101AF00042200121C0F88014FFF786FD054600BF93
:101B0000706A800700F1B280FFF77EFD401B02285B
:101B1000F6D9032002B0BDE8F08100BFF0695FEAAA
:101B2000C00808D4F06940F08050F061F06900F01E
:101B300080500090009847F20007C4F20007386810
:101B4000C00549D4386840F480703860FFF75CFD08
:101B5000054600BF3868C0053ED4FFF755FD401B61
:101B60006428F7D9032002B0BDE8F081706800F066
:101B70000C00082803D17068C0033FF576AF616898
:101B80003068002900F00C81B1F5A02F00F0008131
:101B9000B1F5803F40F01A8140F480301CE100BF75
:101BA0002069002840F20000C4F2422000F0888042
:101BB00001210160FFF728FD054600BF306880075E
:101BC0003FF572AFFFF720FD401B0228F6D9032036
:101BD00002B0BDE8F08100BFE168306A002900F082
:101BE0009D80052900F09280012940F0AF8040F0EF
:101BF0000100B1E00020C4F242200021C0F88014AE
:101C0000FFF702FD054600BF706A80077FF556AFFB
:101C1000FFF7FAFC401B0228F6D9032002B0BDE80A
:101C2000F08100BF0027C4F2422700203866FFF78A
:101C3000EBFC022D05460DD13068800140F1DE80BD
:101C4000FFF7E2FC401B02284FF00300F4D902B07A
:101C5000BDE8F081306880014FD5FFF7D5FC401B0F
:101C600002284FF00300F5D9F1E700BF40F2080069
:101C7000C2F20000006844F6D351C1F26201A0FB39
:101C80000101480A019000BF00BF0198411E0028D1
:101C900001913FF413AF00BF0198411E002801914C
:101CA0003FF40CAF00BF0198411E002801913FF4A2
:101CB00005AF00BF0198411E00280191E4D1FDE667
:101CC00000210160FFF7A0FC054600BF30688007D7
:101CD0007FF5F1AEFFF798FC401B02284FF00300A0
:101CE000F4D9B4E77068216A00F480328A4209D1DD
:101CF000616A00F47010884204D1002002B0BDE88F
:101D0000F08100BF012002B0BDE8F08140F0040086
:101D10003062306A40F001001EE000BF20F0010098
:101D20003062306A20F004003062FFF76DFC054637
:101D300041F28837306A800720D5FFF765FC401BE9
:101D4000B8424FF00300F5D981E700BF20F0010051
:101D50003062306A20F004003062FFF755FC05461F
:101D600041F28837306A800708D4FFF74DFC401BEA
:101D7000B842F7D9032002B0BDE8F081B8F1000FF6
:101D80003FF59FAEF06920F08050F06199E600BF0A
:101D900040F480203060306840F480301CE000BFA8
:101DA00020F480303060306820F480203060FFF70D
:101DB0002BFC0546306880037FF55EAEFFF724FC00
:101DC000401B64284FF00300F4D940E720F4803032
:101DD0003060306820F480203060FFF715FC054645
:101DE000306880033FF548AEFFF70EFC401B6428C7
:101DF000F6D9032002B0BDE8F08100BF206AB0F53B
:101E0000803F05D17168A26821F4003111437160EF
:101E10007168626A21F474111143084370600120F3
:101E20003866FFF7F1FB0446306880013FF565AF87
:101E3000FFF7EAFB001B02284FF00300F4D906E786
:101E4000411E0020B0EB116F1CBF012070474EF205
:101E50001002CEF2000251604EF62351CEF2000184
:101E6000F0230B70072190601160704770470000ED
:101E70007047000090F83C20012A04BF0220704700
:101E8000B0B501F108053CCDD1E900CE23F47C5377
:101E900022F470521A432EF4F0431A432CF4E04318
:101EA0001A4324F4C0431A432A43C96922F48042E6
:101EB000036811435964002180F83C100020B0BD34
:101EC00090F83C20012A4FF0020236D010B580F87D
:101ED0003D200268D2F804E0D2F808C00C682EF069
:101EE0007003234340F2FF74C4F20004A242536023
:101EF0000ADCB2F1804F13D040F20043C4F2000379
:101F00009A420DD011E000BF42F60043C4F2010333
:101F10009A4205D040F60003C4F200039A4204D16D
:101F200049682CF08003194391600121002280F858
:101F30003D1080F83C20BDE810401046704700007E
:101F4000002804BF0120704710B590F83D1031B94A
:101F5000002180F83C10044600F070F82046022171
:101F600080F83D10016840F2FF740B68C4F2000471
:101F700042F6004CA142C4F2010C15DCB1F1804FD5
:101F80001AD040F20042C4F20002914214D0A142A1
:101F900018DCB1F1804F1DD040F20042C4F20002C3
:101FA000914217D01AE000BF614505D040F600020B
:101FB000C4F200029142EAD1826823F07003134315
:101FC000A142E6DD614505D040F60002C4F2000200
:101FD000914203D1026923F440731343846923F0CF
:101FE0008002D0F804E0C368224361450A60CB62F6
:101FF000C1F828E002D14269CCF8302001224A61C0
:102000000B69DB0703D00B6923F001030B6180F838
:10201000462080F83E2080F83F2080F8402080F85D
:10202000412080F8422080F8432080F8442080F846
:10203000452080F83D20002010BD000010B582B082
:102040000068B0F1804F17D042F60041C4F20101A0
:1020500088422BD141F21800C4F20200016800222C
:1020600041F4006101600068002100F4006001900B
:1020700001981B201B2410E041F21800C4F202005A
:102080004168002241F0010141604068012100F0F7
:102090000100009000981C201C24FFF735FB20460F
:1020A00002B0BDE81040FFF71DBB00BF02B010BD7D
:1020B00090F83D1001291CBF01207047022180F8D3
:1020C0003D10006840F2FF72C168C4F20002904205
:1020D00041F00101C16009DCB0F1804F12D040F243
:1020E0000041C4F2000188420CD012E042F60041E7
:1020F000C4F20101884205D040F60001C4F200019B
:10210000884206D1816801F00701062904BF00203A
:102110007047016841F00101016000207047000034
:1021200090F83C20012A4FF002026CD080B580F874
:102130003D20D0F800C04FF67772DCF8083023EA73
:102140000202CCF808200B684F2B29DC1F2B45DD41
:10215000202B46D0302B44D0402B40F0AF80D1F81C
:1021600004E0C968DCF82030DCF8202022F001020D
:10217000CCF82020DCF8182022F0F00242EA01110D
:1021800023F00A0242EA0E02CCF81810CCF8202004
:10219000DCF8081041F0470121F0300128E000BFD1
:1021A0006F2B33DDB3F5005F74D0B3F5805F21D0C2
:1021B000702B40F08380D1E901E3C968DCF8082086
:1021C00043EA0E0322F47F4243EA01211143CCF893
:1021D0000810DCF8081041F0770109E00BB1102B72
:1021E0006CD1DCF8081021F07001194341F00701AF
:1021F000CCF808100022012180F83D10002180F861
:102200003C10BDE880401046704700BF502B21D0E5
:10221000602B53D1D1F804E0C968DCF82030DCF839
:10222000202022F01002CCF82020DCF8182022F424
:10223000704242EA013123F0A00242EA0E12CCF8C9
:102240001810CCF82020DCF8081041F0670121F0CC
:102250001001CDE7D1F804E0C968DCF82030DCF8E3
:10226000202022F00102CCF82020DCF8182022F0F7
:10227000F00242EA011123F00A0242EA0E02CCF80F
:102280001810CCF82020DCF8081041F0570121F09C
:102290002001ADE7D1E901E3C968DCF8082043EA91
:1022A0000E0322F47F4243EA01211143CCF80810C7
:1022B000DCF8081041F480419AE700BF01229AE758
:1022C0007047000070B504460068C5680669B1072C
:1022D00016D515F0020113D06FF002010161012142
:1022E00021778069800703D02046FFF7E9FF05E0EA
:1022F000204600F061F9204600F00CFC0020207719
:10230000700719D515F0040016D020686FF004018D
:10231000016102212177806910F4407F04D02046BA
:10232000FFF7CEFF06E000BF204600F045F920464B
:1023300000F0F0FB00202077300717D515F00800DB
:1023400014D020686FF00801016104212177C06971
:10235000800703D02046FFF7B3FF05E0204600F0DA
:102360002BF9204600F0D6FB00202077F00619D587
:1023700015F0100016D020686FF0100101610821DF
:102380002177C06910F4407F04D02046FFF798FF02
:1023900006E000BF204600F00FF9204600F0BAFB2F
:1023A00000202077F00718BF15F0010002D1300699
:1023B00009D412E020686FF001010161204600F0AD
:1023C00019FC300609D515F0800006D020686FF0A2
:1023D000800101612046FFF749FD700609D515F01F
:1023E000400006D020686FF040010161204600F0F7
:1023F00003FCB00658BF70BD15F0200008D021685E
:102400006FF0200220460A61BDE87040FFF730BD42
:1024100070BD000090F83C30012B04BF02207047D3
:102420004FEAB202032A00F2C1802DE9F041DFE851
:1024300002F003852F5F00BF026842F60045146A70
:10244000136AC4F2010523F0010313625368D2F842
:1024500018C0AA428D68D1F800E024F0020444EAD2
:1024600005040BD1CD68D1E9056723F4407324F04E
:102470000C0425F0040533432C433B432CF0730735
:1024800047EA0E07536097614968516384E000BFD3
:10249000026842F60045146A136AC4F2010523F487
:1024A000807313625368D2F81CC0AA428D68D1F8B9
:1024B00000E024F4007444EA05240FD1CD68D1E98A
:1024C00005872D0240F2FF4624F44064B5432C43B7
:1024D00023F4405347EA080543EA05132CF0730739
:1024E00047EA0E075360D7614968D16354E000BFE3
:1024F000026842F60046D2F820C0136AC4F2010610
:1025000023F4805313625368D4690D68D1F808E04E
:10251000B24204D14E6923F4804343EA861324F483
:10252000E64646EA05265360D6612CF40057496812
:1025300047EA0E33116413622FE000BF026842F6CF
:102540000045146A136AC4F2010523F010031362F4
:102550005368D2F818C0AA428D68D1F800E024F080
:10256000200444EA05140FD1CD68D1E905876FF046
:10257000400624F0C00406EA05152C4323F440630A
:1025800047EA080543EA85032CF4E64747EA0E27A5
:10259000536097614968916314620021BDE8F0417E
:1025A000002280F83C200846704700BF012100222D
:1025B00080F83C200846704710B540F60044C4F24D
:1025C0000104016804F50052914218BF10BD007F5C
:1025D00008280DD140F21C60C2F20000FEF7C6F9D7
:1025E00020464FF480710122BDE81040FFF706B885
:1025F00010BD0000002804BF0120704710B590F8FE
:102600003D1031B9002180F83C10044600F070F80C
:102610002046022180F83D10016840F2FF740B68EB
:10262000C4F2000442F6004CA142C4F2010C15DCD5
:10263000B1F1804F1AD040F20042C4F20002914240
:1026400014D0A14218DCB1F1804F1DD040F20042FD
:10265000C4F20002914217D01AE000BF614505D0D4
:1026600040F60002C4F200029142EAD1826823F0EF
:1026700070031343A142E6DD614505D040F6000238
:10268000C4F20002914203D1026923F44073134360
:10269000846923F08002D0F804E0C36822436145D6
:1026A0000A60CB62C1F828E002D14269CCF8302040
:1026B00001224A610B69DB0703D00B6923F0010398
:1026C0000B6180F8462080F83E2080F83F2080F89B
:1026D000402080F8412080F8422080F8432080F894
:1026E000442080F8452080F83D20002010BD0000E7
:1026F00070470000F1B1042908D0082914BF412215
:102700004022825C012A05D024E000BF3F22825C87
:10271000012A1FD10222082920D0042914BF80F8E1
:10272000412080F83F204FEAB103032B4FF0010214
:102730000DD81BE090F83E20012A0BD1022280F830
:102740003E204FEAB103032B4FF001020ED9104691
:10275000704700BF01221046704700BF80F840203C
:102760004FEAB103032B4FF00102F0D848F2685C46
:102770000068C0F6000C5CF823C0C36801F01F01BC
:1027800043EA0C03C360036A8A4023EA0201016240
:10279000036A42F64441C4F201011A43A1F1440321
:1027A0009842026210D040F2FF71C4F200018842E8
:1027B00014DCB0F1804F1DD040F20041C4F20001A2
:1027C000884217D01DE000BF0A6842F400420A6048
:1027D00040F2FF71C4F200018842EADD42F6004196
:1027E000C4F20101884205D040F60001C4F20001A4
:1027F000884206D1816801F00701062904BF002044
:102800007047016841F0010101600020704700003D
:1028100090F83C30012B04BF022070474FEAB2020F
:10282000032A00F2F1802DE9F043DFE802F003A56E
:102830003B7500BF036842F600461D6A1A6AC4F27F
:10284000010622F001021A621A465C6852F818CF9B
:10285000B3428E68D1F800E025F0020545EA06058E
:102860000CD1CE68D1E9057824F4407425F00C052C
:1028700026F004063C43354344EA08042CF0730771
:1028800047EA0E075C609F614F6809695F631D62DC
:102890009F6947F008079F619F6927F004079F61C0
:1028A000A6E000BF036842F600461D6A1A6AC4F239
:1028B000010622F480721A621A46D3F804C052F854
:1028C0001CEFB3428E680C6825F4007545EA0625B6
:1028D0000FD1CE68D1E90598360240F2FF4725F4C2
:1028E0004065BE4335432CF4405748EA090647EAA1
:1028F000061C2EF073072743C3F804C0DF614F683E
:102900000969DF631D62DF6947F00807DF61DF697E
:1029100027F00407DF616BE0036842F60047D3F855
:1029200020C01A6AC4F2010722F480521A621A46C1
:102930005C6852F81C5FD1F800E08E68BB4204D19D
:102940004F6924F4804444EA87142CF4005747EA82
:10295000063725F4E64646EA0E265C60DE614E68E0
:1029600009691E641F62DF6947F40067DF61DF6980
:1029700027F48067DF613AE0036842F600461D6A8B
:102980001A6AC4F2010622F010021A621A46D3F83B
:1029900004C052F8184FB3428E68D1F800E025F019
:1029A000200545EA06150FD1CE68D1E905986FF0EC
:1029B000400725F0C00507EA061635432CF44067AA
:1029C00048EA090647EA860C24F4E64444EA0E275E
:1029D000C3F804C09F614F6809699F631D629F69C6
:1029E00047F400679F619F6927F480679F61090230
:1029F0001368194311600021BDE8F043002280F8FC
:102A00003C200846704700BF0121002280F83C208E
:102A100008467047002804BF0120704710B590F8A1
:102A20003D1031B9002180F83C10044600F070F8E8
:102A30002046022180F83D10016840F2FF740B68C7
:102A4000C4F2000442F6004CA142C4F2010C15DCB1
:102A5000B1F1804F1AD040F20042C4F2000291421C
:102A600014D0A14218DCB1F1804F1DD040F20042D9
:102A7000C4F20002914217D01AE000BF614505D0B0
:102A800040F60002C4F200029142EAD1826823F0CB
:102A900070031343A142E6DD614505D040F6000214
:102AA000C4F20002914203D1026923F4407313433C
:102AB000846923F08002D0F804E0C36822436145B2
:102AC0000A60CB62C1F828E002D14269CCF830201C
:102AD00001224A610B69DB0703D00B6923F0010374
:102AE0000B6180F8462080F83E2080F83F2080F877
:102AF000402080F8412080F8422080F8432080F870
:102B0000442080F8452080F83D20002010BD0000C2
:102B10007047000070470000C1B1042908D008299F
:102B200014BF41224022825C012A05D016E000BF7A
:102B30003F22825C012A11D10222082910D00429E7
:102B400014BF80F8412080F83F200BE090F83E2031
:102B5000012A03D1022280F83E2003E001207047C1
:102B600080F84020006801F01F010122036A8A40BA
:102B700023EA02010162036A42F64441C4F2010100
:102B80001A43A1F14403984202620FD040F2FF7150
:102B9000C4F20001884213DCB0F1804F1CD040F237
:102BA0000041C4F20001884216D01CE00A6842F4D9
:102BB00000420A6040F2FF71C4F200018842EBDD7E
:102BC00042F60041C4F20101884205D040F60001FE
:102BD000C4F20001884206D1816801F0070106298C
:102BE00004BF00207047016841F00101016000202E
:102BF000704700007047000070470000FEE70000CB
:102C000010B586B00020CDE90400CDE9020041F204
:102C10001800C4F20200016840F6004441F00801C7
:102C200001600068C4F2010400F0080001900198FE
:102C3000C0200290112003900320059002A9204695
:102C4000FEF7C6FB204680210122FEF7D7FC204676
:102C500040210122FEF7D2FC06B010BD2DE9F04F55
:102C600087B040F600448246C4F2010400204021AF
:102C70000590CDE90210049002A92046FEF7A8FBBA
:102C8000204640210122FEF7B9FC20468021012286
:102C9000FEF7B4FC0A2006900698411E069160B12A
:102CA0000698411E069140B10698411E069120B13A
:102CB0000698411E00280691EED120464021FEF7DD
:102CC0008FFC0190204680210022FEF797FC0A200D
:102CD000069000BF0698411E069160B10698411EFD
:102CE000069140B10698411E069120B10698411EFA
:102CF00000280691EED1204680210122FEF77EFCBD
:102D00000A2006900698411E069160B10698411E61
:102D1000069140B10698411E069120B10698411EC9
:102D200000280691EED120464021FEF759FC009084
:102D3000204680210022FEF761FC0A20069000BF99
:102D40000698411E069160B10698411E069140B159
:102D50000698411E069120B10698411E0028069152
:102D6000EED1204680210122FEF748FC0A20069081
:102D70000698411E069160B10698411E069140B129
:102D80000698411E069120B10698411E0028069122
:102D9000EED120464021FEF723FC834620468021C9
:102DA0000022FEF72BFC0A20069000BF0698411E69
:102DB000069160B10698411E069140B10698411EE9
:102DC000069120B10698411E00280691EED12046BA
:102DD00080210122FEF712FC0A2006900698411E6F
:102DE000069160B10698411E069140B10698411EB9
:102DF000069120B10698411E00280691EED120468A
:102E00004021FEF7EDFB0646204680210022FEF71A
:102E1000F5FB0A20069000BF0698411E069160B19E
:102E20000698411E069140B10698411E069120B1B8
:102E30000698411E00280691EED1204680210122ED
:102E4000FEF7DCFB0A2006900698411E069160B151
:102E50000698411E069140B10698411E069120B188
:102E60000698411E00280691EED120464021FEF72B
:102E7000B7FB0746204680210022FEF7BFFB0A2051
:102E8000069000BF0698411E069160B10698411E4B
:102E9000069140B10698411E069120B10698411E48
:102EA00000280691EED1204680210122FEF7A6FBE4
:102EB0000A2006900698411E069160B10698411EB0
:102EC000069140B10698411E069120B10698411E18
:102ED00000280691EED120464021FEF781FB0546F1
:102EE000204680210022FEF789FB0A20069000BFC1
:102EF0000698411E069160B10698411E069140B1A8
:102F00000698411E069120B10698411E00280691A0
:102F1000EED1204680210122FEF770FB0A200690A8
:102F20000698411E069160B10698411E069140B177
:102F30000698411E069120B10698411E0028069170
:102F4000EED120464021FEF74BFB804620468021F3
:102F50000022FEF753FB0A20069000BF0698411E90
:102F6000069160B10698411E069140B10698411E37
:102F7000069120B10698411E00280691EED1204608
:102F800080210122FEF73AFB0A2006900698411E96
:102F9000069160B10698411E069140B10698411E07
:102FA000069120B10698411E00280691EED12046D8
:102FB0004021FEF715FB8146204680210022FEF7C6
:102FC0001DFB0A20069000BF0698411E069160B1C5
:102FD0000698411E069140B10698411E069120B107
:102FE0000698411E00280691EED111200390002082
:102FF00004900320059002A92046FEF7E9F9204637
:103000004021BAF1000F6FD00022FEF7F7FA2046F8
:1030100080210122FEF7F2FA0A2006900698411E4E
:10302000069160B10698411E069140B10698411E76
:10303000069120B10698411E00280691EED1204647
:1030400080210022FEF7DAFA0A2006900698411E37
:10305000069160B10698411E069140B10698411E46
:10306000069120B10698411E00280691EED1204617
:1030700040210122FEF7C2FA019800990138013976
:10308000B0FA80F0B1FA81F14009490941EA400003
:10309000ABF10101B1FA81F18000490940EA410038
:1030A000711EB1FA81F149090844791EB1FA81F122
:1030B0008000490940EA4100691EB1FA81F14909DD
:1030C0000844A8F10101B1FA81F18000490940EA00
:1030D0004100A9F10101B1FA81F149090844C0B2E6
:1030E00007B0BDE8F08F00BF0122FEF787FA204647
:1030F00080210122FEF782FA0A2006900698411EDE
:10310000069160B10698411E069140B10698411E95
:10311000069120B10698411E00280691EED1204666
:1031200080210022FEF76AFA0A2006900698411EC6
:1031300000280691A0D00698411E002806919BD039
:103140000698411E0028069196D00698411E002838
:103150000691EBD190E700002DE9F04F85B040F6E5
:103160000044CDE9002389460546C4F2010400F07D
:10317000EFFF68000290C5F3801220464021FEF761
:103180003DFA0A20049000BF0498411E049160B1EA
:103190000498411E049140B10498411E049120B14D
:1031A0000498411E00280491EED12046802101227E
:1031B000FEF724FA0A2004900498411E049160B19D
:1031C0000498411E049140B10498411E049120B11D
:1031D0000498411E00280491EED12046802100224F
:1031E000FEF70CFA0A2004900498411E049160B185
:1031F0000498411E049140B10498411E049120B1ED
:103200000498411E00280491EED1C5F340122046D7
:1032100040210392FEF7F2F90A2004900498411E1F
:10322000049160B10498411E049140B10498411E7C
:10323000049120B10498411E00280491EED120464B
:1032400080210122FEF7DAF90A2004900498411E39
:10325000049160B10498411E049140B10498411E4C
:10326000049120B10498411E00280491EED120461B
:1032700080210022FEF7C2F90A2004900498411E22
:10328000049160B10498411E049140B10498411E1C
:10329000049120B10498411E00280491EED1C5F399
:1032A000001B204640215A46FEF7A8F90A20049048
:1032B0000498411E049160B10498411E049140B1EC
:1032C0000498411E049120B10498411E00280491E5
:1032D000EED1204680210122FEF790F90A200490C9
:1032E0000498411E049160B10498411E049140B1BC
:1032F0000498411E049120B10498411E00280491B5
:10330000EED1204680210022FEF778F90A200490B1
:103310000498411E049160B10498411E049140B18B
:103320000498411E049120B10498411E0028049184
:10333000EED1C5F3C00A204640215246FEF75EF9A1
:103340000A2004900498411E049160B10498411E23
:10335000049140B10498411E049120B10498411E8B
:1033600000280491EED1204680210122FEF746F983
:103370000A2004900498411E049160B10498411EF3
:10338000049140B10498411E049120B10498411E5B
:1033900000280491EED1204680210022FEF72EF96C
:1033A0000A2004900498411E049160B10498411EC3
:1033B000049140B10498411E049120B10498411E2B
:1033C00000280491EED1C5F38007204640213A46FB
:1033D000FEF714F90A2004900498411E049160B18C
:1033E0000498411E049140B10498411E049120B1FB
:1033F0000498411E00280491EED12046802101222C
:10340000FEF7FCF80A2004900498411E049160B174
:103410000498411E049140B10498411E049120B1CA
:103420000498411E00280491EED1204680210022FC
:10343000FEF7E4F80A2004900498411E049160B15C
:103440000498411E049140B10498411E049120B19A
:103450000498411E00280491EED1C5F34006204691
:1034600040213246FEF7CAF80A2004900498411E13
:10347000049160B10498411E049140B10498411E2A
:10348000049120B10498411E00280491EED12046F9
:1034900080210122FEF7B2F80A2004900498411E10
:1034A000049160B10498411E049140B10498411EFA
:1034B000049120B10498411E00280491EED12046C9
:1034C00080210022FEF79AF80A2004900498411EF9
:1034D000049160B10498411E049140B10498411ECA
:1034E000049120B10498411E00280491EED105F00A
:1034F0000108204640214246FEF780F80A20049049
:103500000498411E049160B10498411E049140B199
:103510000498411E049120B10498411E0028049192
:10352000EED1204680210122FEF768F80A2004909F
:103530000498411E049160B10498411E049140B169
:103540000498411E049120B10498411E0028049162
:10355000EED1204680210022FEF750F80A20049088
:103560000498411E049160B10498411E049140B139
:103570000498411E049120B10498411E0028049132
:10358000EED1204640210022FEF738F80A200490B0
:103590000498411E049160B10498411E049140B109
:1035A0000498411E049120B10498411E0028049102
:1035B000EED1204680210122FEF720F80A20049057
:1035C0000498411E049160B10498411E049140B1D9
:1035D0000498411E049120B10498411E00280491D2
:1035E000EED1204680210022FEF708F80A20049040
:1035F0000498411E049160B10498411E049140B1A9
:103600000498411E049120B10498411E00280491A1
:10361000EED100F0F3FD00283ED0204640210022EC
:10362000FDF7ECFF204680210122FDF7E7FF0A208D
:10363000049000BF0498411E049160B10498411E9B
:10364000049140B10498411E049120B10498411E98
:1036500000280491EED1204640210122FDF7CEFF43
:103660000A2004900498411E0028049100F021854E
:103670000498411E0028049100F01B850498411E07
:103680000028049100F015850498411E002804913B
:10369000E8D100F00EBD00BF4FEAD912204640210C
:1036A000FDF7ACFF0A2004900498411E049160B11C
:1036B0000498411E049140B10498411E049120B128
:1036C0000498411E00280491EED120468021012259
:1036D000FDF794FF0A2004900498411E049160B104
:1036E0000498411E049140B10498411E049120B1F8
:1036F0000498411E00280491EED12046802100222A
:10370000FDF77CFF0A2004900498411E049160B1EB
:103710000498411E049140B10498411E049120B1C7
:103720000498411E00280491EED1C9F3801220466E
:103730004021FDF763FF0A20049000BF0498411E5A
:10374000049160B10498411E049140B10498411E57
:10375000049120B10498411E00280491EED1204626
:1037600080210122FDF74AFF0A2004900498411E9F
:10377000049160B10498411E049140B10498411E27
:10378000049120B10498411E00280491EED12046F6
:1037900080210022FDF732FF0A2004900498411E88
:1037A000049160B10498411E049140B10498411EF7
:1037B000049120B10498411E00280491EED1C9F370
:1037C000401220464021FDF719FF0A20049000BF57
:1037D0000498411E049160B10498411E049140B1C7
:1037E0000498411E049120B10498411E00280491C0
:1037F000EED1204680210122FDF700FF0A2004902F
:103800000498411E049160B10498411E049140B196
:103810000498411E049120B10498411E002804918F
:10382000EED1204680210022FDF7E8FE0A20049018
:103830000498411E049160B10498411E049140B166
:103840000498411E049120B10498411E002804915F
:10385000EED1C9F3001220464021FDF7CFFE0A2029
:10386000049000BF0498411E049160B10498411E69
:10387000049140B10498411E049120B10498411E66
:1038800000280491EED1204680210122FDF7B6FEEA
:103890000A2004900498411E049160B10498411ECE
:1038A000049140B10498411E049120B10498411E36
:1038B00000280491EED1204680210022FDF79EFED3
:1038C0000A2004900498411E049160B10498411E9E
:1038D000049140B10498411E049120B10498411E06
:1038E00000280491EED1C9F3C00220464021FDF723
:1038F00085FE0A20049000BF0498411E049160B127
:103900000498411E049140B10498411E049120B1D5
:103910000498411E00280491EED120468021012206
:10392000FDF76CFE0A2004900498411E049160B1DA
:103930000498411E049140B10498411E049120B1A5
:103940000498411E00280491EED1204680210022D7
:10395000FDF754FE0A2004900498411E049160B1C2
:103960000498411E049140B10498411E049120B175
:103970000498411E00280491EED1C9F3800220462C
:103980004021FDF73BFE0A20049000BF0498411E31
:10399000049160B10498411E049140B10498411E05
:1039A000049120B10498411E00280491EED12046D4
:1039B00080210122FDF722FE0A2004900498411E76
:1039C000049160B10498411E049140B10498411ED5
:1039D000049120B10498411E00280491EED12046A4
:1039E00080210022FDF70AFE0A2004900498411E5F
:1039F000049160B10498411E049140B10498411EA5
:103A0000049120B10498411E00280491EED1C9F31D
:103A1000400220464021FDF7F1FD0A20049000BF3E
:103A20000498411E049160B10498411E049140B174
:103A30000498411E049120B10498411E002804916D
:103A4000EED1204680210122FDF7D8FD0A20049006
:103A50000498411E049160B10498411E049140B144
:103A60000498411E049120B10498411E002804913D
:103A7000EED1204680210022FDF7C0FD0A200490EF
:103A80000498411E049160B10498411E049140B114
:103A90000498411E049120B10498411E002804910D
:103AA000EED109F0010220464021FDF7A7FD0A20D2
:103AB000049000BF0498411E049160B10498411E17
:103AC000049140B10498411E049120B10498411E14
:103AD00000280491EED1204680210122FDF78EFDC1
:103AE0000A2004900498411E049160B10498411E7C
:103AF000049140B10498411E049120B10498411EE4
:103B000000280491EED1204680210022FDF776FDA9
:103B10000A2004900498411E049160B10498411E4B
:103B2000049140B10498411E049120B10498411EB3
:103B300000280491EED100F061FB00283CD0204623
:103B400040210022FDF75AFD204680210122FDF789
:103B500055FD0A20049000BF0498411E049160B1F5
:103B60000498411E049140B10498411E049120B173
:103B70000498411E00280491EED1204640210122E4
:103B8000FDF73CFD0A2004900498411E0028049192
:103B900000F08F820498411E0028049100F0898271
:103BA0000498411E0028049100F083820498411E6D
:103BB00000280491E8D17CE200F0CAFA0298402182
:103BC000C0B2C2092046FDF719FD0A20049000BFCB
:103BD0000498411E049160B10498411E049140B1C3
:103BE0000498411E049120B10498411E00280491BC
:103BF000EED1204680210122FDF700FD0A2004902D
:103C00000498411E049160B10498411E049140B192
:103C10000498411E049120B10498411E002804918B
:103C2000EED1204680210022FDF7E8FC0A20049016
:103C30000498411E049160B10498411E049140B162
:103C40000498411E049120B10498411E002804915B
:103C5000EED1039A20464021FDF7D0FC0A200490C3
:103C60000498411E049160B10498411E049140B132
:103C70000498411E049120B10498411E002804912B
:103C8000EED1204680210122FDF7B8FC0A200490E5
:103C90000498411E049160B10498411E049140B102
:103CA0000498411E049120B10498411E00280491FB
:103CB000EED1204680210022FDF7A0FC0A200490CE
:103CC0000498411E049160B10498411E049140B1D2
:103CD0000498411E049120B10498411E00280491CB
:103CE000EED1204640215A46FDF788FC0A20049078
:103CF0000498411E049160B10498411E049140B1A2
:103D00000498411E049120B10498411E002804919A
:103D1000EED1204680210122FDF770FC0A2004909C
:103D20000498411E049160B10498411E049140B171
:103D30000498411E049120B10498411E002804916A
:103D4000EED1204680210022FDF758FC0A20049085
:103D50000498411E049160B10498411E049140B141
:103D60000498411E049120B10498411E002804913A
:103D7000EED1204640215246FDF740FC0A20049037
:103D80000498411E049160B10498411E049140B111
:103D90000498411E049120B10498411E002804910A
:103DA000EED1204680210122FDF728FC0A20049054
:103DB0000498411E049160B10498411E049140B1E1
:103DC0000498411E049120B10498411E00280491DA
:103DD000EED1204680210022FDF710FC0A2004903D
:103DE0000498411E049160B10498411E049140B1B1
:103DF0000498411E049120B10498411E00280491AA
:103E0000EED1204640213A46FDF7F8FB0A20049007
:103E10000498411E049160B10498411E049140B180
:103E20000498411E049120B10498411E0028049179
:103E3000EED1204680210122FDF7E0FB0A2004900C
:103E40000498411E049160B10498411E049140B150
:103E50000498411E049120B10498411E0028049149
:103E6000EED1204680210022FDF7C8FB0A200490F5
:103E70000498411E049160B10498411E049140B120
:103E80000498411E049120B10498411E0028049119
:103E9000EED1204640213246FDF7B0FB0A200490C7
:103EA0000498411E049160B10498411E049140B1F0
:103EB0000498411E049120B10498411E00280491E9
:103EC000EED1204680210122FDF798FB0A200490C4
:103ED0000498411E049160B10498411E049140B1C0
:103EE0000498411E049120B10498411E00280491B9
:103EF000EED1204680210022FDF780FB0A200490AD
:103F00000498411E049160B10498411E049140B18F
:103F10000498411E049120B10498411E0028049188
:103F2000EED1204640214246FDF768FB0A2004906E
:103F30000498411E049160B10498411E049140B15F
:103F40000498411E049120B10498411E0028049158
:103F5000EED1204680210122FDF750FB0A2004907B
:103F60000498411E049160B10498411E049140B12F
:103F70000498411E049120B10498411E0028049128
:103F8000EED1204680210022FDF738FB0A20049064
:103F90000498411E049160B10498411E049140B1FF
:103FA0000498411E049120B10498411E00280491F8
:103FB000EED1204640210122FDF720FB0A2004908B
:103FC0000498411E049160B10498411E049140B1CF
:103FD0000498411E049120B10498411E00280491C8
:103FE000EED1204680210122FDF708FB0A20049033
:103FF0000498411E049160B10498411E049140B19F
:104000000498411E049120B10498411E0028049197
:10401000EED1204680210022FDF7F0FA0A2004901C
:104020000498411E049160B10498411E049140B16E
:104030000498411E049120B10498411E0028049167
:10404000EED100F0DBF8C8B3204640210022FDF796
:10405000D5FA204680210122FDF7D0FA0A200490EB
:104060000498411E049160B10498411E049140B12E
:104070000498411E049120B10498411E0028049127
:10408000EED1204640210122FDF7B8FA0A20049023
:104090000498411E049160B10498411E049140B1FE
:1040A0000498411E049120B10498411E00280491F7
:1040B000EED1012005B0BDE8F08F00BF019868B1D6
:1040C000009946424D1E00BFB6F1FF3018BF0120D7
:1040D000FEF7C4FD013605F8010FF5D32046402157
:1040E0000022FDF78BFA204680210122FDF786FA97
:1040F0000A2004900498411E049160B10498411E66
:10410000049140B10498411E049120B10498411ECD
:1041100000280491EED1204640210122FDF76EFADD
:104120000A2004900498411E049160B10498411E35
:10413000049140B10498411E049120B10498411E9D
:1041400000280491EED1002005B0BDE8F08F0000FA
:1041500010B584B040F60044C4F20104204640216A
:104160000122FDF74BFA204680210122FDF746FA95
:104170000A2001900198411E019160B10198411EF1
:10418000019140B10198411E019120B10198411E59
:1041900000280191EED1204640210022FDF72EFAA1
:1041A0000A2002900298411E029160B10298411EBD
:1041B000029140B10298411E029120B10298411E25
:1041C00000280291EED1204680210022FDF716FA48
:1041D0000A2003900398411E039160B10398411E89
:1041E000039140B10398411E039120B10398411EF1
:1041F00000280391EED104B010BD0000B0B586B028
:1042000040F60044C4F20104002040210490CDE9AE
:104210000110039001A92046FDF7DAF8204640215D
:104220000122FDF7EBF90A20059000BF0598411E19
:10423000059160B10598411E059140B10598411E58
:10424000059120B10598411E00280591EED1204628
:1042500080210122FDF7D2F94FF47A7520464021E2
:10426000FDF7BEF960B1013D2804F7D140F20470BA
:10427000C2F20000018801250131018001E000BF88
:104280000025204680210022FDF7B8F90A2005907C
:104290000598411E059160B10598411E059140B1F8
:1042A0000598411E059120B10598411E00280591F1
:1042B000EED111200290002003900320049001A968
:1042C0002046FDF785F820464021FDF78FF9284666
:1042D00006B0B0BD2DE9F04381B040F600449946E8
:1042E00090460F460646C4F20104FFF731FFC6F3BD
:1042F000801220464021FDF781F90A20009000BF7E
:104300000098411E009160B10098411E009140B19B
:104310000098411E009120B10098411E0028009194
:10432000EED1204680210122FDF768F90A20009095
:104330000098411E009160B10098411E009140B16B
:104340000098411E009120B10098411E0028009164
:10435000EED1204680210022FDF750F90A2000907E
:104360000098411E009160B10098411E009140B13B
:104370000098411E009120B10098411E0028009134
:10438000EED1C6F3401220464021FDF737F90A204E
:10439000009000BF0098411E009160B10098411E3E
:1043A000009140B10098411E009120B10098411E3B
:1043B00000280091EED1204680210122FDF71EF950
:1043C0000A2000900098411E009160B10098411EA3
:1043D000009140B10098411E009120B10098411E0B
:1043E00000280091EED1204680210022FDF706F939
:1043F0000A2000900098411E009160B10098411E73
:10440000009140B10098411E009120B10098411EDA
:1044100000280091EED1C6F3001220464021FDF79E
:10442000EDF80A20009000BF0098411E009160B195
:104430000098411E009140B10098411E009120B1AA
:104440000098411E00280091EED1204680210122D3
:10445000FDF7D4F80A2000900098411E009160B149
:104460000098411E009140B10098411E009120B17A
:104470000098411E00280091EED1204680210022A4
:10448000FDF7BCF80A2000900098411E009160B131
:104490000098411E009140B10098411E009120B14A
:1044A0000098411E00280091EED1C6F3C0022046BC
:1044B0004021FDF7A3F80A20009000BF0098411E9C
:1044C000009160B10098411E009140B10098411EDA
:1044D000009120B10098411E00280091EED12046A5
:1044E00080210122FDF78AF80A2000900098411EE1
:1044F000009160B10098411E009140B10098411EAA
:10450000009120B10098411E00280091EED1204674
:1045100080210022FDF772F80A2000900098411EC9
:10452000009160B10098411E009140B10098411E79
:10453000009120B10098411E00280091EED1C6F3F1
:10454000800220464021FDF759F80A20009000BF64
:104550000098411E009160B10098411E009140B149
:104560000098411E009120B10098411E0028009142
:10457000EED1204680210122FDF740F80A2000906C
:104580000098411E009160B10098411E009140B119
:104590000098411E009120B10098411E0028009112
:1045A000EED1204680210022FDF728F80A20009055
:1045B0000098411E009160B10098411E009140B1E9
:1045C0000098411E009120B10098411E00280091E2
:1045D000EED1C6F3400220464021FDF70FF80A2035
:1045E000009000BF0098411E009160B10098411EEC
:1045F000009140B10098411E009120B10098411EE9
:1046000000280091EED1204680210122FCF7F6FF20
:104610000A2000900098411E009160B10098411E50
:10462000009140B10098411E009120B10098411EB8
:1046300000280091EED1204680210022FCF7DEFF09
:104640000A2000900098411E009160B10098411E20
:10465000009140B10098411E009120B10098411E88
:1046600000280091EED106F0010220464021FCF71F
:10467000C5FF0A20009000BF0098411E009160B164
:104680000098411E009140B10098411E009120B158
:104690000098411E00280091EED120468021012281
:1046A000FCF7ACFF0A2000900098411E009160B119
:1046B0000098411E009140B10098411E009120B128
:1046C0000098411E00280091EED120468021002252
:1046D000FCF794FF0A2000900098411E009160B101
:1046E0000098411E009140B10098411E009120B1F8
:1046F0000098411E00280091EED120464021002262
:10470000FCF77CFF0A2000900098411E009160B1E8
:104710000098411E009140B10098411E009120B1C7
:104720000098411E00280091EED1204680210122F0
:10473000FCF764FF0A2000900098411E009160B1D0
:104740000098411E009140B10098411E009120B197
:104750000098411E00280091EED1204680210022C1
:10476000FCF74CFF0A2000900098411E009160B1B8
:104770000098411E009140B10098411E009120B167
:104780000098411E00280091EED1FFF737FD002868
:104790003CD0204640210022FCF730FF20468021FB
:1047A0000122FCF72BFF0A20009000BF0098411E59
:1047B000009160B10098411E009140B10098411EE7
:1047C000009120B10098411E00280091EED12046B2
:1047D00040210122FCF712FF0A2000900098411EA0
:1047E0000028009100F099820098411E0028009155
:1047F00000F093820098411E0028009100F08D8205
:104800000098411E00280091E8D186E2FA0920466E
:104810004021FCF7F3FE0A20009000BF0098411EE3
:10482000009160B10098411E009140B10098411E76
:10483000009120B10098411E00280091EED1204641
:1048400080210122FCF7DAFE0A2000900098411E28
:10485000009160B10098411E009140B10098411E46
:10486000009120B10098411E00280091EED1204611
:1048700080210022FCF7C2FE0A2000900098411E11
:10488000009160B10098411E009140B10098411E16
:10489000009120B10098411E00280091EED1C7F38D
:1048A000801220464021FCF7A9FE0A20009000BF9C
:1048B0000098411E009160B10098411E009140B1E6
:1048C0000098411E009120B10098411E00280091DF
:1048D000EED1204680210122FCF790FE0A200090B4
:1048E0000098411E009160B10098411E009140B1B6
:1048F0000098411E009120B10098411E00280091AF
:10490000EED1204680210022FCF778FE0A2000909C
:104910000098411E009160B10098411E009140B185
:104920000098411E009120B10098411E002800917E
:10493000EED1C7F3401220464021FCF75FFE0A206B
:10494000009000BF0098411E009160B10098411E88
:10495000009140B10098411E009120B10098411E85
:1049600000280091EED1204680210122FCF746FE6E
:104970000A2000900098411E009160B10098411EED
:10498000009140B10098411E009120B10098411E55
:1049900000280091EED1204680210022FCF72EFE57
:1049A0000A2000900098411E009160B10098411EBD
:1049B000009140B10098411E009120B10098411E25
:1049C00000280091EED1C7F3001220464021FCF7E9
:1049D00015FE0A20009000BF0098411E009160B1B2
:1049E0000098411E009140B10098411E009120B1F5
:1049F0000098411E00280091EED12046802101221E
:104A0000FCF7FCFD0A2000900098411E009160B167
:104A10000098411E009140B10098411E009120B1C4
:104A20000098411E00280091EED1204680210022EE
:104A3000FCF7E4FD0A2000900098411E009160B14F
:104A40000098411E009140B10098411E009120B194
:104A50000098411E00280091EED1C7F3C002204605
:104A60004021FCF7CBFD0A20009000BF0098411EBA
:104A7000009160B10098411E009140B10098411E24
:104A8000009120B10098411E00280091EED12046EF
:104A900080210122FCF7B2FD0A2000900098411EFF
:104AA000009160B10098411E009140B10098411EF4
:104AB000009120B10098411E00280091EED12046BF
:104AC00080210022FCF79AFD0A2000900098411EE8
:104AD000009160B10098411E009140B10098411EC4
:104AE000009120B10098411E00280091EED1C7F33B
:104AF000800220464021FCF781FD0A20009000BF83
:104B00000098411E009160B10098411E009140B193
:104B10000098411E009120B10098411E002800918C
:104B2000EED1204680210122FCF768FD0A2000908A
:104B30000098411E009160B10098411E009140B163
:104B40000098411E009120B10098411E002800915C
:104B5000EED1204680210022FCF750FD0A20009073
:104B60000098411E009160B10098411E009140B133
:104B70000098411E009120B10098411E002800912C
:104B8000EED1C7F3400220464021FCF737FD0A2052
:104B9000009000BF0098411E009160B10098411E36
:104BA000009140B10098411E009120B10098411E33
:104BB00000280091EED1204680210122FCF71EFD45
:104BC0000A2000900098411E009160B10098411E9B
:104BD000009140B10098411E009120B10098411E03
:104BE00000280091EED1204680210022FCF706FD2E
:104BF0000A2000900098411E009160B10098411E6B
:104C0000009140B10098411E009120B10098411ED2
:104C100000280091EED107F0010220464021FCF768
:104C2000EDFC0A20009000BF0098411E009160B189
:104C30000098411E009140B10098411E009120B1A2
:104C40000098411E00280091EED1204680210122CB
:104C5000FCF7D4FC0A2000900098411E009160B13E
:104C60000098411E009140B10098411E009120B172
:104C70000098411E00280091EED12046802100229C
:104C8000FCF7BCFC0A2000900098411E009160B126
:104C90000098411E009140B10098411E009120B142
:104CA0000098411E00280091EED1FFF7A7FAC8B383
:104CB000204640210022FCF7A1FC20468021012251
:104CC000FCF79CFC0A2000900098411E009160B106
:104CD0000098411E009140B10098411E009120B102
:104CE0000098411E00280091EED12046402101226B
:104CF000FCF784FC0A2000900098411E009160B1EE
:104D00000098411E009140B10098411E009120B1D1
:104D10000098411E00280091EED1012001B0BDE8AD
:104D2000F08300BFB9F1000F00F04B8200260A2784
:104D300018F806502046EA094021FCF75FFC00976E
:104D40000098411E009160B10098411E009140B151
:104D50000098411E009120B10098411E002800914A
:104D6000EED1204680210122FCF748FC009700BFCD
:104D70000098411E009160B10098411E009140B121
:104D80000098411E009120B10098411E002800911A
:104D9000EED1204680210022FCF730FC009700BFB6
:104DA0000098411E009160B10098411E009140B1F1
:104DB0000098411E009120B10098411E00280091EA
:104DC000EED1C5F3801220464021FCF717FC009776
:104DD0000098411E009160B10098411E009140B1C1
:104DE0000098411E009120B10098411E00280091BA
:104DF000EED1204680210122FCF700FC009700BF85
:104E00000098411E009160B10098411E009140B190
:104E10000098411E009120B10098411E0028009189
:104E2000EED1204680210022FCF7E8FB009700BF6E
:104E30000098411E009160B10098411E009140B160
:104E40000098411E009120B10098411E0028009159
:104E5000EED1C5F3401220464021FCF7CFFB00976E
:104E60000098411E009160B10098411E009140B130
:104E70000098411E009120B10098411E0028009129
:104E8000EED1204680210122FCF7B8FB009700BF3D
:104E90000098411E009160B10098411E009140B100
:104EA0000098411E009120B10098411E00280091F9
:104EB000EED1204680210022FCF7A0FB009700BF26
:104EC0000098411E009160B10098411E009140B1D0
:104ED0000098411E009120B10098411E00280091C9
:104EE000EED1C5F3001220464021FCF787FB009766
:104EF0000098411E009160B10098411E009140B1A0
:104F00000098411E009120B10098411E0028009198
:104F1000EED1204680210122FCF770FB009700BFF4
:104F20000098411E009160B10098411E009140B16F
:104F30000098411E009120B10098411E0028009168
:104F4000EED1204680210022FCF758FB009700BFDD
:104F50000098411E009160B10098411E009140B13F
:104F60000098411E009120B10098411E0028009138
:104F7000EED1C5F3C00220464021FCF73FFB00976D
:104F80000098411E009160B10098411E009140B10F
:104F90000098411E009120B10098411E0028009108
:104FA000EED1204680210122FCF728FB009700BFAC
:104FB0000098411E009160B10098411E009140B1DF
:104FC0000098411E009120B10098411E00280091D8
:104FD000EED1204680210022FCF710FB009700BF95
:104FE0000098411E009160B10098411E009140B1AF
:104FF0000098411E009120B10098411E00280091A8
:10500000EED1C5F3800220464021FCF7F7FA009765
:105010000098411E009160B10098411E009140B17E
:105020000098411E009120B10098411E0028009177
:10503000EED1204680210122FCF7E0FA009700BF64
:105040000098411E009160B10098411E009140B14E
:105050000098411E009120B10098411E0028009147
:10506000EED1204680210022FCF7C8FA009700BF4D
:105070000098411E009160B10098411E009140B11E
:105080000098411E009120B10098411E0028009117
:10509000EED1C5F3400220464021FCF7AFFA00975D
:1050A0000098411E009160B10098411E009140B1EE
:1050B0000098411E009120B10098411E00280091E7
:1050C000EED1204680210122FCF798FA009700BF1C
:1050D0000098411E009160B10098411E009140B1BE
:1050E0000098411E009120B10098411E00280091B7
:1050F000EED1204680210022FCF780FA009700BF05
:105100000098411E009160B10098411E009140B18D
:105110000098411E009120B10098411E0028009186
:10512000EED105F0010220464021FCF767FA009716
:105130000098411E009160B10098411E009140B15D
:105140000098411E009120B10098411E0028009156
:10515000EED1204680210122FCF750FA009700BFD3
:105160000098411E009160B10098411E009140B12D
:105170000098411E009120B10098411E0028009126
:10518000EED1204680210022FCF738FA009700BFBC
:105190000098411E009160B10098411E009140B1FD
:1051A0000098411E009120B10098411E00280091F6
:1051B000EED1FFF723F800283ED101364E457FF4AB
:1051C000B7AD204640210022FCF718FA2046802186
:1051D0000122FCF713FA0A20009000BF0098411E3C
:1051E000009160B10098411E009140B10098411EAD
:1051F000009120B10098411E00280091EED1204678
:1052000040210122FCF7FAF90A2000900098411E83
:10521000009160B10098411E009140B10098411E7C
:10522000009120B10098411E00280091EED100208D
:1052300001B0BDE8F08300BF204640210022FCF70A
:10524000DDF9204680210122FCF7D8F90A200090E0
:105250000098411E009160B10098411E009140B13C
:105260000098411E009120B10098411E0028009135
:10527000EED1204640210122FCF7C0F90A2000901F
:105280000098411E002800913FF447AD0098411E50
:10529000002800913FF441AD0098411E0028009184
:1052A0003FF43BAD0098411E00280091E8D134E561
:1052B000B0B588B040F21C6042F200410024C2F256
:1052C0000000C4F201014FF480724FF46023012505
:1052D000069404730475C361C0E90014826005611B
:1052E000FBF71AFC002818BFFBF7D4F94FF4E04095
:1052F000079040F21C60CDE901450225C2F2000092
:1053000001A905950394ADF818400494FBF7D0F972
:10531000002818BFFBF7BEF90120CDE9010540F2D6
:105320001C60C2F2000001A9FBF7C2F9002818BFF7
:10533000FBF7B0F908B0B0BD10B58AB040F24C60D0
:1053400046F20041C2F20000C4F200011022002423
:1053500080E816004FF48071C0E903444461018382
:10536000C0F81A40FBF718FF002818BFFBF792F9A6
:10537000CDE90544CDE90044CDE902440494099403
:1053800040F24C640120C2F20004CDE907006946F6
:105390002046FBF7C1FC20460221FBF7A5FC204676
:1053A000FBF7C6FF0AB010BDF0B585B0002541F28D
:1053B0001800CDE90355CDE90155C4F2020001689A
:1053C00040F6004441F0040101600168C4F20104A8
:1053D00001F00401009100990168012241F00801E7
:1053E000016000684FF4807100F0080000900098A0
:1053F00020464FF480760127FCF700F901A92046EA
:10540000CDE90167CDE90357FBF7E2FF05B0F0BD39
:1054100070B59CB042F6004640F27460C4F20106DA
:105420000021C2F200000122202340F23F648025C7
:105430001691CDE914111191CDE90F11CDE90D119E
:10544000CDE90B11CDE90911CDE90711CDE9051120
:10545000CDE90311CDE90111C0E90062C0E90234D0
:10546000C0E904118561FCF76BFD002818BFFBF74C
:1054700011F94FF48050139040F27460C2F20000B2
:1054800013A9FCF74DFE002818BFFBF703F940F203
:105490007460C2F20000FDF7BDFA002818BFFBF7E8
:1054A000F9F840F27460C2F20000FDF7A3F800289A
:1054B00018BFFBF7EFF840F274600024C2F200005E
:1054C00010A9CDE91044FCF7FBFC002818BFFBF73E
:1054D000E1F86020CDE9090440F27460C2F20000F6
:1054E00009A90022CDE90B44CDE90D440F94FDF745
:1054F0008FF9002818BFFBF7CDF840F27460C2F2B4
:10550000000009A90422FDF783F9002818BFFBF762
:10551000C1F840F27460C2F2000009A90822FDF748
:1055200077F9002818BFFBF7B5F840F25D100A9034
:1055300040F274600024C2F2000009A90C22099410
:10554000FCF768FF002818BFFBF7A4F80594CDE925
:105550000344CDE90144089440F274644FF40050D0
:10556000C2F20004069001A92046FCF783FC002843
:1055700018BFFBF78FF821680020B142CDE91A006F
:105580001990189002D01CB070BD00BF41F21800F5
:10559000C4F20200016841F004010160006818A92A
:1055A00000F00400179017984FF4E0601890022064
:1055B00019901B90A6F51050FBF70AFF1CB070BDA8
:1055C00080B586B040F2BC600021C2F200004FF00E
:1055D00080424FF420734FF0640C0591CDE9031124
:1055E000CDE90011C0E90023C0E9021C016181611D
:1055F000FCF7A6FC002818BFFBF74CF84FF48050CE
:10560000029040F2BC60C2F2000002A9FCF788FDE3
:10561000002818BFFBF73EF840F2BC60C2F2000061
:105620006946FCF74DFC002818BFFBF733F806B0BD
:1056300080BD0000FEE70000FEE7000070470000AC
:1056400080B540F2AC00C2F2000003210023836267
:10565000C0E9041140F2900148F2DD52C2F20001AB
:10566000C0F60002013140F2541E4FF4806CC0E9D4
:10567000182145F25241C2F2000EC0E908C34FF0B2
:10568000100CC0F25401C0E9062EC362C0F868C015
:10569000C366C0F8071044F24751C0F25201C0F887
:1056A000031044F25351C4F2477101602021C0E954
:1056B0001C33817180BD000070B540F2AC0EC2F2A7
:1056C000000E9EF800308C46BBBB032148F2DD5330
:1056D0000026C0F6000340F25414CEF82860CEE94C
:1056E00004110EF11801C2F200044FF4806578C174
:1056F00040F29001C2F200010131CEE9183145F2C9
:1057000052411024C0F25401CEF82C60CEF868400B
:10571000CEF86C60CEF8071044F24751C0F2520147
:10572000CEF8031044F25351C4F24771CEF8001082
:105730002021CEE91C668EF80610EFF311844FF09D
:10574000200181F31188614600F004F884F3118888
:1057500070BD00002DE9F047924640F2AC0200EB2C
:105760004000C2F2000202EBC002D06A0D460228DD
:1057700002F118092CD001281ED0002840F08A80A0
:10578000D9F80C40D9F81000A0427BD9E143084475
:105790005045C0F07F80D9E901010E1BB24520447D
:1057A0005ED229465246FAF77FFD04EB0A00C9F89B
:1057B0000C005046BDE8F087D9F80C40D9F810101D
:1057C000A14233D9E243D9F80800114433E000BFC5
:1057D000D9F80C7054464FF0000A00BFD9F81010E9
:1057E000D9F80800FA43B9421144A0EB070698BF64
:1057F0000144B14238BF0E46D9F80400A64228BF82
:105800002646384429463246FAF74EFDD9F80800B4
:10581000F119A41B0F1AB244354418BF0F46002CCF
:10582000C9F80C70DAD15046BDE8F087D9F8080005
:10583000E24311440144514538BF8A46061BD9F85A
:105840000400B24520440BD229465246FAF72CFDFB
:105850000AEB0400C9F80C005046BDE8F08700BF11
:1058600029463246FAF720FDAAEB0608D9F80400CB
:10587000A9194246FAF718FD5046C9F80C80BDE850
:10588000F08700BFD9F80810E2431044084450459F
:10589000BFF481AF0020BDE8F087000082B080B582
:1058A00082B0CDE9042304AA019201AA00F006F80F
:1058B00002B0BDE8804002B0704700002DE9F04F13
:1058C0009BB0904606AA16924022002504901A909A
:1058D0000DF1580900208A461792CDE918550FE0BE
:1058E000011DC8F80010016848463B46CDE9006B31
:1058F00000F07CFB19985146B0F1FF3F40F3F6826F
:105900001AF8013B252B1BD0002B00F0DF82DDE9CC
:105910001720411C914207D8169A13541998179AC8
:1059200001301990084618919042E3D116991A98BF
:10593000FFF7C2FE1899884240F0C2821895D9E755
:1059400001F1040A4FF0000B1AF8031CA1F1230324
:105950000D2B00F25F800222DFE803F0085C5C5C44
:105960005C5C5C5C0C5C0A5C5C0D00BF082202E0C5
:10597000012200E004221AF8021C4BEA020BA1F1FA
:1059800023030D2B00F28C800222DFE803F007894D
:105990008989898989890B890989890C082202E00A
:1059A000012200E004221AF8011C4BEA020BA1F1CB
:1059B00023030D2B00F280800222DFE803F0077D35
:1059C0007D7D7D7D7D7D0B7D097D7D0C082202E046
:1059D000012200E004229AF800104BEA020BA1F128
:1059E00023030D2B5ED80222DFE803F00E5C5C5C23
:1059F0005C5C5C5C105C125C5C0800BF4BEA020BF8
:105A00000AF1040AA0E700BF0822F7E70422F5E73D
:105A10000122F3E7AAF1030AA1F13A0212F10A0FF7
:105A200045D30AF1020A002606EB860201EB420288
:105A30001AF8011CA2F13006A1F13A0313F10A0F82
:105A400042D306EB860201EB42029AF80010A2F163
:105A50003006A1F13A0313F10A0F37D306EB8602A1
:105A600001EB42029AF80110A2F13006A1F13A03CB
:105A700013F10A0F76D306EB860201EB42029AF885
:105A80000210A2F13006A1F13A0212F10A0F0AF156
:105A9000040AC9D2AAF1020A2E2919D00AE000BFCD
:105AA000AAF1020AA1F13A0212F10A0FB9D20026B4
:105AB0002E290DD0002761E0AAF1010AA1F13A02D6
:105AC00012F10A0FF3D3ACE7AAF1010A2E29F1D1A2
:105AD000524612F8011FA1F13A0313F10A0F03D243
