:020000040800F2
:1000000078060020B5010008A50C0008A10B000827
:10001000A10C0008BD0200080D0D00080000000042
:10002000000000000000000000000000A90C000813
:10003000BF02000800000000A70C0008AB0C00087D
:10004000CF010008CF010008CF010008CF01000850
:10005000CF010008CF010008CF010008CF01000840
:10006000CF010008CF010008CF010008CF01000830
:10007000CF010008CF010008CF010008CF01000820
:10008000CF010008CF010008CF010008CF01000810
:10009000CF010008CF010008CF010008CF01000800
:1000A000CF010008CF010008CF010008CF010008F0
:1000B000CF010008CF010008CF010008CF010008E0
:1000C000CF010008CF010008CF010008CF010008D0
:1000D000CF010008CF010008CF010008CF010008C0
:1000E000CF010008CF010008CF01000800F002F89E
:1000F00000F050F814A696E8000CB244B344DA4578
:1001000001D100F047F8BAE80F000FA696E83000DA
:10011000A5EB040504EB0607AAEB0704A7F101070A
:100120004FEA15154FEA3414A4F10104AC4201D38F
:1001300000F030F813F0010F18BFFB1A43F0010371
:1001400000F001F8DBE71847600C0000800C0000AD
:10015000103A24BF78C878C1FAD8520724BF30C8F3
:1001600030C144BF04680C60704700007047000055
:100170000023002400250026103A28BF78C1FBD8B0
:10018000520728BF30C148BF0B6070471FB51FBD65
:1001900010B510BD00F058F81146FFF7F7FF00F05A
:1001A000B7FD00F076F803B4FFF7F2FF03BC00F0F0
:1001B0007DF800000948804709480047FEE7FEE750
:1001C000FEE7FEE7FEE7FEE7FEE7FEE7FEE7FEE707
:1001D00004480549054A064B704700000B0D00080E
:1001E000ED0000087800002078060020780200204A
:1001F000780200204FF0000200B513469446964660
:10020000203922BFA0E80C50A0E80C50B1F1200129
:10021000BFF4F7AF090728BFA0E80C5048BF0CC0D7
:100220005DF804EB890028BF40F8042B08BF704735
:1002300048BF20F8022B11F0804F18BF00F8012BA7
:100240007047704770477047754600F02BF8AE4610
:1002500005006946534620F00700854618B020B5D2
:10026000FFF7B6FFBDE820404FF000064FF0000753
:100270004FF000084FF0000BAC46ACE8C009ACE80A
:10028000C009ACE8C009ACE8C00921F007018D46FF
:10029000704710B50446AFF300802046BDE810401B
:1002A000FFF781BF00487047100000200149182067
:1002B000ABBEFEE72600020070470000FEE7704775
:1002C000B0B5044600F01AF9054640F20400C2F247
:1002D00000000078611C18BF044400BF00F00EF954
:1002E000401BA042FAD3B0BD2DE9F04F82B00E689A
:1002F000002E00F0EE8041F20042C4F2010204231D
:1003000040F2004E904208BF03234FF6FF7CC4F238
:10031000010E009300240123C1F2100C4FF0000ADB
:100320004FF0000903FA0AFB16EA0B0800F0C88038
:100330004E68664508DC032E34D8DFE806F0280254
:100340003E42D1F80C9043E04FF6FF72C1F2210219
:1003500096420DDC0022C1F21102964217D0002213
:10036000C1F21202964212D00022C1F221020CE028
:100370000022C1F22202964209D00022C1F23102CB
:10038000964204D00022C1F23202964220D18A68FD
:1003900082B1012A14BFC0F814B0C0F810B04FF0F9
:1003A000080915E0112E0FD0122E11D1CA6802F1E2
:1003B0000C090DE04FF004090AE0CA6802F10809CF
:1003C00006E04FF0000903E0CA6802F1040900BF2B
:1003D00002462646B8F5807F24BF0432203E1768C7
:1003E0000F25B54027EA050509FA06F635431560DD
:1003F000CA79D20664D541F21803C4F202031A681E
:10040000AEF57E7642F001021A601A6802F001022F
:100410000192019A2AF0030256F802B040F6000257
:10042000C4F20102904210D040F60042C4F2010230
:10043000904208D041F20002C4F20102009F9042B3
:1004400008BF022702E0012700E0002704F00C03A8
:100450000F229A402BEA020207FA03F34FEA9A05A9
:100460001A4346F825204E6840F20C45F202DEF8A9
:10047000082054BF22EA080242EA0802C4F2010539
:10048000CEF808202A68B30254BF22EA080242EAE2
:1004900008022A60B303DEF8042054BF22EA0802EF
:1004A00042EA0802F303CEF80420DEF800204FF001
:1004B000010354BF22EA080242EA0802CEF80020F3
:1004C0000E680AF1010A36FA0AF204F104047FF414
:1004D00029AF02B0BDE8F08F8068084018BF012046
:1004E0007047C26802EA0103914341EA0341016196
:1004F0007047002A08BF09040161704740F270008C
:10050000C2F200000068704740F2040040F270013F
:10051000C2F20000C2F2000100780A6810440860CC
:10052000704780B542F20000C4F20200016841F059
:1005300010010160032000F07BF80F2000F004F8A8
:1005400000F02AF8002080BDB0B540F20402C2F2EB
:10055000000240F200011278C2F200014FF47A73F7
:100560000968B3FBF2F20446B1FBF2F1084600F071
:1005700001FB0F2C4FF001050CD858B94FF0FF309C
:1005800021460022002500F028F840F20800C2F2BF
:10059000000004602846B0BD82B041F21800C4F2E9
:1005A00002000168022241F001010160016801F0CE
:1005B000010101910199416841F080514160406819
:1005C00000F08050009000980420C4F201000168FF
:1005D00062F31A61016002B0704710B54EF60C5C10
:1005E000CEF2000CDCF80030C3F3022E8EF00704CC
:1005F000042C28BF0424BEF103034FF0FF3E0EFA83
:1006000004F438BF0023A14399400EFA03F39A4340
:10061000114300F00F0200F160430901043A03F5B1
:1006200064436244002848BF02F10C03197010BDF6
:100630004EF60C51CEF200010A684FF6FF031A4045
:1006400060F30A2242F0806040F0FD70086070475D
:10065000002800F081802DE9F04381B042F20008CB
:10066000C4F202080446D8F800000D4600F0070066
:1006700081420CD9D8F8000020F007002843C8F8C0
:100680000000D8F8000000F00700A8426FD12068F1
:1006900041F204098107C4F2020917D5410705D5C3
:1006A000D9F8001041F4E061C9F80010010705D540
:1006B000D9F8001041F46051C9F80010D9F80010C1
:1006C000A26821F0F0011143C9F80010C00745D11C
:1006D000D8F8000000F0070085420CD2D8F80000DE
:1006E00020F007002843C8F80000D8F8000000F008
:1006F0000700A8423BD12068410707D5D9F8001070
:10070000E26821F4E0611143C9F80010000708D540
:10071000D9F80000216920F4605040EAC100C9F80E
:10072000000000F049F8D9F8001040F69852C1F3E3
:100730000311C0F60002515C40F2000220FA01F100
:1007400040F20800C2F200000068C2F2000211602C
:10075000FFF7FAFE00200BE001207047606859F8AF
:10076000041C022807D0012823D1890305D40120C5
:1007700001B0BDE8F0838901F9D5D9F8001021F066
:1007800003010843C9F80000FFF7B8FE064641F22E
:10079000883700BFD9F80000616800F00C00B0EBAA
:1007A000810F95D0FFF7AAFE801BB842F2D9032033
:1007B000DEE78907DBD5E0E741F2040CC4F2020C66
:1007C000DCF8003003F00C00082841F20020C0F2F1
:1007D0007A0018BF7047C3F383420AA18A5CD90329
:1007E00005D440F60010C0F23D0050437047DCF8DD
:1007F000001008A3C1F34041595C5043B0FBF1F035
:10080000704700BF02030405060708090A0B0C0D18
:100810000E0F10100102000000284CD02DE9F0410D
:1008200082B00446007841F20006C007C4F2020616
:100830000BD0706800F00C0004283ED130688003B3
:1008400003D56068002800F0CC802078800719D597
:10085000706810F00C0F07D0706800F00C000828CA
:1008600047D17068C00344D43068800703D520693D
:10087000012840F0B6803068616920F0F80040EA55
:10088000C1003060207800076ED5A069002846D0EE
:100890000020C4F242200121C0F88014FFF72EFE90
:1008A000054600BF706A80074BD4FFF727FE401B48
:1008B0000228F7D921E101207047706800F00C0090
:1008C000082802D17068C003B8D461683068002974
:1008D00000F01781B1F5A02F00F0FC80B1F5803F4A
:1008E00000F0FC8020F480303060306820F48020FC
:1008F000F6E02069002840F20000C4F2422000F037
:10090000A28001210160FFF7F9FD054630688007EC
:10091000B1D4FFF7F3FD401B0228F7D9EDE000202A
:10092000C4F242200021C0F88014FFF7E7FD05461D
:10093000706A800718D5FFF7E1FD401B0228F7D940
:10094000DBE040F20000C2F20000006844F6D35140
:10095000C1F26201A0FB0101480A019000BF0198A9
:10096000411E00280191F9D12078400715D4E5698E
:100970008DB1706800F00C00082843D1012D30D0F3
:100980007068216A00F480328A422AD1616A00F4D8
:100990007010884225D10020B0E0F0695FEAC008FD
:1009A00008D4F06940F08050F061F06900F08050A8
:1009B0000090009847F20007C4F200073868C005AD
:1009C00011D4386840F480703860FFF797FD054611
:1009D0003868C00507D4FFF791FD401B6428F7D99C
:1009E0008BE001208AE0E168306A002951D00529B6
:1009F0003AD001293CD020F001003062306A20F06A
:100A0000040037E00027C4F2422700203866FFF7D1
:100A100075FD022D05460BD13068800140F18880BC
:100A2000FFF76CFD401B02284FF00300F4D965E08E
:100A300030688001AFD5FFF761FD401B02284FF001
:100A40000300F5D95AE000210160FFF757FD054684
:100A5000306880077FF516AFFFF750FD401B022876
:100A60004FF00300F4D949E040F004003062306AEE
:100A700040F001003062FFF741FD054641F2883742
:100A8000306A80071DD4FFF739FD401BB842F7D903
:100A900033E020F001003062306A20F00400306260
:100AA000FFF72CFD054641F2883700BF306A80070A
:100AB00007D5FFF723FD401BB8424FF00300F5D9DF
:100AC0001CE0B8F1000F3FF552AFF06920F0805004
:100AD000F0614CE740F480203060306840F48030B2
:100AE0003060FFF70BFD0546306880033FF5ADAE83
:100AF000FFF704FD401B6428F6D9032002B0BDE8CF
:100B0000F08120F480303060306820F48020306044
:100B1000FFF7F4FC054600BF306880037FF595AE13
:100B2000FFF7ECFC401B64284FF00300F4D9E5E725
:100B3000206AB0F5803F05D17168A26821F40031C8
:100B4000114371607168626A21F4741111430843A2
:100B5000706001203866FFF7D1FC044630688001E0
:100B60003FF519AFFFF7CAFC001B02284FF0030046
:100B7000F4D9C3E7411E0020B0EB116F1CBF012068
:100B800070474EF21002CEF2000251604EF6235131
:100B9000CEF20001F0230B700721906011607047C6
:100BA000FEE710B586B00020CDE90400CDE90200D3
:100BB00041F21800C4F20200016840F6004441F01E
:100BC000080101600068C4F2010400F0080001900F
:100BD0000198C0200290112003900320059002A9E3
:100BE0002046FFF781FB204680210122FFF781FC90
:100BF000204640210122FFF77CFC06B010BD00001A
:100C0000B0B586B040F60044C4F201040020402193
:100C10000490CDE90110039001A92046FFF764FB81
:100C2000204640210122FFF764FC1420059000BFFC
:100C30000598411E00280591FAD120468021012205
:100C4000FFF757FC142005900598411E00280591D8
:100C5000FAD120464021FFF73FFC0546204680217F
:100C60000022FFF746FC1420059000BF0598411EA6
:100C700000280591FAD11120002D18BF01250290FE
:100C8000002003900320049001A92046FFF72CFBCD
:100C900020464021FFF725FC284606B0B0BD0000E5
:100CA000FEE70000FEE770477047FFF72DBC00002D
:100CB00070B590B006AC201D1821FFF79BFA0120FB
:100CC0000A9010200B904FF46010022500260F9020
:100CD000204606950D950E96FFF79EFD18B1EFF391
:100CE000108072B6FEE70F2001A961C14FF4806049
:100CF000CDE9040601A80221FFF7AAFC18B1EFF321
:100D0000108072B6FEE710B070BD7047FEE70000BD
:100D100086B040F60044C4F20104FFF702FCFFF77E
:100D2000C7FF002541F21800CDE90455CDE9025571
:100D3000C4F202000168012241F00401016001686F
:100D40004FF4807601F004010191019901680127B7
:100D500041F00801016000684FF4807100F0080064
:100D6000019001982046FFF7C4FB02A92046CDE977
:100D70000267CDE90457FFF7B7FAFFF712FF00BF8C
:100D800020464FF48071FFF7ACFB4FF4FA70FFF789
:100D900097FAFFF735FFF3E70000000000000000BE
:100DA0000102030406070809C80D0008000000201E
:100DB0001000000050010008D80D000810000020AD
:100DC000680600007001000800127A0001000000AF
:080DD00010000000000000000B
:04000005080000ED02
:00000001FF
