:020000040800F2
:1000000058080020A5020008852A0008A926000833
:10001000812A0008AD030008DD2B00080000000065
:100020000000000000000000000000008D2A000811
:10003000B103000800000000892A0008912A000886
:10004000BF020008BF020008BF020008BF0200088C
:10005000BF020008BF020008BF020008BF0200087C
:10006000BF020008BF020008BF020008BF0200086C
:10007000BF020008BF020008BF020008BF0200085C
:10008000BF02000800000000BF020008BF02000815
:10009000BF020008BF020008BF020008BF0200083C
:1000A000BF020008BF020008BF020008BF0200082C
:1000B000BF020008BF020008BF020008BF0200081C
:1000C000BF020008BF020008BF020008BF0200080C
:1000D000BF020008BF020008BF020008BF020008FC
:1000E000BF020008BF020008BF020008BF020008EC
:1000F000BF020008BF020008BF02000800000000A5
:1001000000000000BF02000800000000BF0200085D
:10011000BF02000800000000BF020008BF02000884
:10012000BF020008BF020008BF020008BF020008AB
:10013000BF0200080000000000000000BF0200082D
:10014000BF020008BF02000800000000000000001D
:10015000000000000000000000000000000000009F
:10016000000000000000000000000000BF020008C6
:10017000BF020008000000000000000000000000B6
:1001800000000000BF0200080000000000000000A6
:10019000000000000000000000000000000000005F
:1001A0000000000000000000BF020008BF020008BD
:1001B000BF020008BF020008BF02000800000000E4
:1001C00000000000BF020008000000000000000066
:1001D000BF020008BF02000800F002F800F052F869
:1001E00014A696E8000CB244B344DA4501D100F0FD
:1001F00049F8BAE80F000FA696E83000A5EB040511
:1002000004EB0607AAEB0704A7F101074FEA15154F
:100210004FEA3414A4F10104AC4201D300F032F8E7
:1002200013F0010F18BFFB1A43F0010300F001F8AF
:10023000DBE718477C2A00009C2A0000103A24BF04
:1002400078C878C1FAD8520724BF30C830C144BF3B
:1002500004680C6070470000704700000023002411
:1002600000250026103A28BF78C1FBD8520728BFC6
:1002700030C148BF0B6070471FB502F003FD1FBDC2
:1002800010B510BD00F058F81146FFF7F5FF02F069
:10029000A7FC00F076F803B4FFF7F2FF03BC00F010
:1002A0007DF800000948804709480047FEE7FEE75F
:1002B000FEE7FEE7FEE7FEE7FEE7FEE7FEE7FEE716
:1002C00004480549054A064B70470000952A000876
:1002D000D9010008580200205808002058040020C6
:1002E000580400204FF0000200B51346944696468D
:1002F000203922BFA0E80C50A0E80C50B1F1200139
:10030000BFF4F7AF090728BFA0E80C5048BF0CC0E6
:100310005DF804EB890028BF40F8042B08BF704744
:1003200048BF20F8022B11F0804F18BF00F8012BB6
:100330007047704770477047754600F02BF8AE461F
:1003400005006946534620F00700854618B020B5E1
:10035000FFF7B6FFBDE820404FF000064FF0000762
:100360004FF000084FF0000BAC46ACE8C009ACE819
:10037000C009ACE8C009ACE8C00921F007018D460E
:10038000704710B50446AFF300802046BDE810402A
:10039000FFF781BF00487047100000200149182076
:1003A000ABBEFEE72600020070470000FEE700003B
:1003B00070470000EFF3108072B600BFFEE7000048
:1003C00090F85820012A04BF02207047B0B582B0CF
:1003D0000022019200920368B3F1A04F30D140F2A5
:1003E00008344FF6006EC5F20004CFF6FF7E54F8D5
:1003F0000E209B681A43520722D4D1F800C022680D
:10040000BCF1000F22F4604328D04A6890F83850BD
:1004100042EA45321A4322604FF60052CFF6FF728D
:10042000A25854F80E301A43D20727D1226840F65A
:100430001F7389689A43114341EA0C011DE000BF14
:10044000C16D41F02001C1650121002280F85820D2
:1004500002B0BDE8B0400846704700BF4FF60051FB
:100460002360CFF6FF71615854F80E201143C9077D
:1004700004D1216840F61F72914321600021E4E716
:10048000F0B581B00022009290F85820012A03D1E3
:100490000221084601B0F0BD0123076880F85830FA
:1004A000BB685B0734D4D1E900351F26C5F30124AE
:1004B00007EB8404226B05F01F05AE40C3F3846391
:1004C000B243AB401A432263BA68BB6802F004022D
:1004D00003F00803D21840F0BC800A6807F1140347
:1004E0000426C2F34064D1F808E006EAD25C53F86F
:1004F0002440C2F304550722AA40BEF1004F24EA6B
:1005000002040BD143F80C401A6842F000430DE09E
:10051000C16D41F02001C165012178E10EFA05F2BB
:10052000224343F80C201A6822F000437B61D1E992
:100530000435FC68042B5FD13A6E3A6E0B68C2F347
:10054000846293FAA3F6C3F3846C6FF3DF43B6FAC5
:1005500086F5002B2C464FF6FF7E08BF6446A2426C
:10056000C0F2070E0CD13A6E22F000423A660A68D9
:1005700002EA0E03C2F3846C92FAA2F2B2FA82F596
:100580007A6E7A6E002BC2F384622C4608BF6446F2
:10059000A2420CD17A6E22F000427A660A6802EA20
:1005A0000E03C2F3846C92FAA2F2B2FA82F5BA6E2A
:1005B000BA6E002BC2F384622C4608BF6446A24286
:1005C0000CD1BA6E22F00042BA660A6802EA0E0343
:1005D000C2F3846C92FAA2F2B2FA82F5FA6EFA6E63
:1005E000002BC2F3846208BF6546AA4231D1FA6E7D
:1005F00022F00042FA662CE0062202EA940205FA92
:1006000002FC0E6807F1600555F823404FF2000226
:10061000C0F2FF3206F0F846224046EA0C063243AA
:1006200042F0004245F823200A698B6955F82260A0
:1006300026F08076334345F822300A690B7F55F85F
:100640002260012B26F0007608BF06F1007645F8FF
:100650002260BA680D68D20750D1CA68D7F8B06076
:100660002B466FF3DF4326EA030C4FF6FF7602F0CA
:100670001804C0F20706E64000242E40C4F27F04AE
:1006800046EA0C06A242C7F8B06037D193B195FA9A
:10069000A5F2B2FA82F2013202F01E03092B02F037
:1006A0001F0310D801229A4003EB430342EA03538D
:1006B00015E000BF012202EB956202F01E030A2B37
:1006C00002F01F03EED3012200269A4003EB4303FE
:1006D000CFF6206606EB03531A4342F00073C3F3D0
:1006E000406607EB86068A687569C3F304530724DE
:1006F0009C40A5439A402A4372610D680021C8F2CC
:1007000008010D4200F0828040F2083CC5F2000C66
:10071000DCF800400021CCF221318D4204F0E07E73
:1007200004D01021C9F2C0018D4241D1B7F1A04FD0
:100730004FF0000108BF14F4000268D1DCF800108B
:1007400042F6635221F0E07141EA0E0141F40001EA
:10075000CCF8001040F20801C2F200010968C0F2B2
:100760003E528909A1FB0212910901EB41010C22C1
:1007700002EB810100910099002947D000990139CD
:1007800000910099002941D0009901390091009908
:10079000E1B30099013900910099B9B30099013989
:1007A0000091009900294FF00001E7D12FE000BF30
:1007B0000021CCF252718D4210D10021B1EB1E6F9D
:1007C0000CD1ACF502718F4220D0DCF8001021F082
:1007D000E07141EA0E0141F0807115E0ACF5027163
:1007E0008F424FF0000112D00022CCF684329542A5
:1007F00008BF14F480020AD1DCF8001021F0E07187
:1008000041EA0E0141F48001CCF8001000210022E1
:1008100080F85820084601B0F0BD0000B0B582B0A5
:1008200000210028019155D0C16D39B9044600F06E
:1008300009F920460021216684F858100268916861
:1008400089004FF6C071C5F6FF7102D593680B4061
:1008500093609368DB002ED4936801F180511940B6
:1008600041F08051916040F20801C2F20001096834
:1008700042F663538909C0F23E53A1FB0313990961
:10088000022303EB410101910199A1B101990139C1
:100890000191019979B1019901390191019951B100
:1008A000019901390191019929B101990139019108
:1008B00001990029EAD19168C90011D4C16D4FF0A6
:1008C000010E41F01001C165016E41F001010166A8
:1008D00008E000BF4FF0010E704602B0B0BD00BF8F
:1008E0004FF0000E9368C46D03F0040304F010048D
:1008F0001B19C36D68D123F481730233C3659368F8
:10090000DB071AD140F2083C4FF600544FF6006363
:10091000C5F2000CCFF6FF74CFF6FF735CF804400D
:100920005CF803302343DB0707D14368DCF8004061
:1009300024F47C142343CCF80030437FC46BD0E90B
:1009400002C144EA4333194390F8243041EA0C01D0
:10095000012B41EA034306D1816A0024CFF6FE74DD
:1009600004EB41410B43C46A24B1016B04F4787475
:1009700021430B43D16844F20704CFF6F0742140C1
:100980001943D1601169436B21F040611943116132
:100990009168090743D490F83810037F490041EA71
:1009A0008331D36844F20204A3431943D16003693D
:1009B00014698BB144F480311161D2F8C01043F650
:1009C000FF74A1430B4310E043F010024FF0010EFF
:1009D000C265704602B0B0BD24F480311161D2F816
:1009E000C01043F6FF7321EA0303C2F8C03090F849
:1009F0004010136901290FD140F2FD7123EA010C67
:100A0000D0E91134D0E9131543EA0C032343194309
:100A1000294341F0010301E023F00103136141691F
:100A2000136B012923F00F0302D1016A01390B4333
:100A30001363C26D012161F30102C265704602B009
:100A4000B0BD000010B598B0044600201790CDE965
:100A50001500CDE9130002A84421FFF743FC2068EC
:100A600040F20011C5F2000188422FD0B0F1A04F32
:100A700062D14FF4004002904FF00050119002A854
:100A800000F008FD002818BFFFF794FC40F2700149
:100A9000C2F200010A6841F24C00C4F20200531C89
:100AA0000B6042B9016841F400510160016801F432
:100AB000005101910199016841F001010160006854
:100AC00000F001000190019801202BE04FF400405C
:100AD00002904FF00050119002A800F0DBFC0028BB
:100AE00018BFFFF767FC40F27001C2F200010A680C
:100AF00041F24C00C4F20200531C0B6042B9016881
:100B000041F400510160016801F400510191019923
:100B1000016841F001010160006800F001000190EE
:100B2000019802201390032014900020159013A91F
:100B30004FF0904000F08AF918B010BDB0B50446EF
:100B400000F06CFA054640F20000C2F20000406876
:100B5000611C18BF044400BF00F060FA401BA042B3
:100B6000FAD3B0BD002804BF01207047F0B581B0B2
:100B7000044690F85C0028B9002084F85D00204607
:100B800000F018F92068816921F01001816100F0FE
:100B900045FA054620688169090705D500F03EFA47
:100BA000401B0B28F6D310E0816941F001018161FF
:100BB00000F034FA054600BF21688869C0070FD1EC
:100BC00000F02CFA401B0B28F6D3206E032140F0D6
:100BD00001002066012084F85C1001B0F0BD00BF68
:100BE0004AF200408A69C4F20000A0F5804342F056
:100BF000020299428A6105D162684CF20013CFF675
:100C0000FF73C250227C8B69012A23F0400318BF76
:100C100040338B61627C8B69012A23F4804308BFD7
:100C200003F580438B61A27C8B69012A23F48053F6
:100C300018BF03F580538B618D69D4E902E325F475
:100C4000407545EA0E058D618D6925F0A4058D611D
:100C50000D6925F010050D61A3B1012B0ED0022BFB
:100C600009D08D69032B45F080058D610D6945F034
:100C700010050D6106D1202301E000BF04238D691A
:100C80002B438B61D4E90535D4E907266FF0FF0CBF
:100C9000013D0CEB0222002742EA4562751ECFF6A9
:100CA000FF772A4307EB03431A43BEF5407FCA612F
:100CB00010D104F124064CCE256B013B0CEB06262B
:100CC00033436FF00F0606EB0516334307EB024282
:100CD0001A43CA6004F134078CCFD1F8C06037439F
:100CE000C1F8C0702064D1F880704AF2704627F4D1
:100CF000F817C4F2000647EA0242C1F88020666491
:100D0000D1F8802022F0706242EA0362C1F88020AC
:100D100006F14001A16406F58C71E16406F5F871F5
:100D2000216506F502716165002106F5037200BFB9
:100D3000C0E90011C0E90211C0E90411C0E90611BF
:100D4000C0E90811C0E90A11C0E90C11C0E90E118F
:100D5000C0E91011C0E91211C0E91411C0E916115F
:100D6000C0E91811C0E91A11C0E91C11C0E91E112F
:100D7000C0E92011C0E92211C0E92411C0E92611FF
:100D8000C0E92811C0E92A11C0E92C11C0E92E11CF
:100D9000C0E93011C0E93211C0F8D010904200F122
:100DA000D400C5D300200121A065206684F85C1022
:100DB00001B0F0BD10B598B0044600201790CDE901
:100DC0001500CDE9130002A804304021FFF78AFA8C
:100DD000206846F20041C4F20001884202D018B0F7
:100DE00010BD00BF4FF4805002904FF000700E9085
:100DF00002A800F04FFB002818BFFFF7DBFA41F212
:100E00004C00C4F20200C16841F00071C160C168C9
:100E100001F0007101910199016841F00101016047
:100E2000006813A900F00100019001984FF4C05030
:100E30001390022014900020CDE91500092017908E
:100E40004FF0904000F002F818B010BD2DE9F04FBF
:100E500083B00E68002E00F0CF8000F1200241F236
:100E6000004C009200F13847C4F6000C06224FEA0D
:100E7000B725604508BF0522052D38BF4FEAB722C8
:100E8000002500274FF0000801920AE00E6808F1E3
:100E9000010836FA08F207F1020705F1040500F02F
:100EA000AB80012202FA08FE16EA0E09EED0D1F854
:100EB00004C003220CF0030BABF1010602FA07F4A5
:100EC000012E6FEA040A11D88468CE6804EA0A0485
:100ED000BE4034438460446824EA0E06CCF3001418
:100EE00004FA08F42643466006E000BFBBF1030F96
:100EF00002D14FF0030B21E0C6688C6806EA0A06AF
:100F0000BC402643BBF1020FC66017D16FF003024D
:100F1000009B02EA580605F01C020F2453F806C095
:100F200004FA02FE0C692CEA0E0C04FA02F242EA00
:100F30000C029A51D1F804C00CF0030B02680BFAB2
:100F400007F302EA0A021A431CF4403F02609DD0F4
:100F500041F26003C4F202031A6840F2004E42F00C
:100F600001021A601A68C4F2010E02F00102029234
:100F7000029A28F003024FF6084C7244CFF6FF7C29
:100F800052F80C3005F00C060F24B440A343019C2A
:100F900004FA06F6334342F80C30DEF808204B68BA
:100FA00042EA090640F20C4CDC0258BF22EA09066C
:100FB000CEF80860C4F2010CDCF800209C0242EA82
:100FC000090658BF22EA0906CCF80060DEF80420C2
:100FD0009C0342EA090658BF22EA0906CEF80460DB
:100FE000DEF80020DB0342EA090658BF22EA0906C0
:100FF000CEF800604AE700BF03B0BDE8F08F000004
:10100000426902EA0103914341EA03418161704769
:101010001823002A08BF2823C150704740F25020EF
:10102000C2F200000068704790F84120202A03D1E6
:1010300090F84020012A01D102207047242280F834
:1010400041200268136823F001031360136823F43E
:1010500080531360136819431160116841F0010156
:101060001160202180F84110002180F840100020FC
:101070007047000090F84120202A03D190F84020CA
:10108000012A01D102207047242280F84120026801
:10109000136823F001031360136823F4706343EAB9
:1010A00001211160116841F001011160202180F8D7
:1010B0004110002180F8401000207047002804BF34
:1010C0000120704710B590F8411031B9002180F827
:1010D0004010044600F04AF82046242180F84110D0
:1010E00090E81210C3680A68012B22F001020A601E
:1010F00024F070620A618A6822F400428A6003D197
:101100004CF400428A6009E04CF40442022B8A60ED
:1011100004D14A6842F4006203E000BF4A6822F446
:1011200000624A604A6800F1100C42F0007242F41A
:1011300000424A60CA6822F40042CA609CE81C105F
:101140001A4342EA0422CA60026A42EA0C020A60B6
:101150000A6842F001020A6000212022416480F8FE
:101160004120016380F84210002010BD2DE9F041BC
:1011700098B0044600201790CDE91500CDE9130082
:1011800002A8043040214025FFF7ACF8206845F262
:101190000041C4F20001884202D018B0BDE8F081DD
:1011A0004FF40050089002A8029500F073F900284F
:1011B00018BFFFF7FFF841F24C05C4F2020528689A
:1011C00013AC40F00100286028684FF0120800F0CE
:1011D0000100019001982868002740F00200286073
:1011E0002868042600F00200019001984FF40040A6
:1011F00013904FF090402146CDF85080CDE91577FF
:101200001796FFF723FE8020CDE9130840F2004037
:10121000C4F600002146CDE915771796FFF716FEB4
:10122000E86840F40010E860E86800F400100190FD
:10123000019818B0BDE8F08140F2000040F2502162
:10124000C2F20000C2F2000140680A68104408605F
:101250007047000080B5032000F07AF80F2000F0FE
:1012600009F800281CBF012080BD00F02BF80020E9
:1012700080BD0000B0B540F20005C2F2000569680B
:10128000F1B1044640F20800C2F200004FF47A7255
:101290000068B2FBF1F1B0FBF1F000F01BFE01467B
:1012A0000F2C4FF001000AD8002918BFB0BD4FF035
:1012B000FF302146002200F01FF800202C60B0BD56
:1012C0000120B0BD82B041F25800C4F20200816832
:1012D00041F001018160816801F0010101910199F2
:1012E000016841F080510160006800F0805000907A
:1012F000009802B000F0C4B810B54EF60C5CCEF207
:10130000000CDCF80030C3F3022E8EF00704042C2E
:1013100028BF0424BEF103034FF0FF3E0EFA04F48D
:1013200038BF0023A14399400EFA03F39A431143B7
:1013300000F00F0200F160430901043A03F5644331
:101340006244002848BF02F10C03197010BD000070
:101350004EF60C51CEF200010A684FF6FF031A4018
:1013600060F30A2242F0806040F0FD700860704730
:1013700047F21401C4F2000151F8142CB0F5007FBB
:101380003CD0002874D1C86E02F4C06220F4807092
:10139000B2F5806FC8662FD151F8140C012262F3A8
:1013A0004A2041F8140C40F20800C2F20000006824
:1013B000322250434DF68362C4F21B32A0FB02027C
:1013C000900C00BF0A68520511D5421C0FD00A6864
:1013D00052050CD558B10A68520508D5012806D027
:1013E0000A68520503D50228A0F10400EAD1086872
:1013F000400544BF0320704700207047C86E02F4C8
:10140000C06240F48070B2F5806FC866F4D151F8C4
:10141000140C012262F34A2041F8140C40F2080037
:10142000C2F200000068322250434DF68362C4F2DB
:101430001B32A0FB0202900C0A68520511D5421C17
:101440000FD00A6852050CD558B10A68520508D564
:10145000012806D00A68520503D50228A0F104002D
:10146000EAD10868400544BF03207047C4E700BFC5
:10147000022060F34A2241F8142C0020704700003B
:1014800047F20800C4F20000016841F480410160A5
:10149000704700002DE9F04182B00446807841F2A7
:1014A00088060007C4F2020602D400202FE000BF25
:1014B00056F8300C5FEAC0080BD456F8300C40F0F8
:1014C000805046F8300C56F8300C00F080500190F7
:1014D000019847F20007C4F20007386840F48070B2
:1014E0003860FFF79BFD05463868C00500F1D680DF
:1014F000FFF794FD401B0228F6D90320B8F1000F36
:1015000005D456F8301C21F0805146F8301C216873
:10151000CA0713D18A0719D44A071FD40A0725D44A
:101520008A062BD44A0631D40A0637D4CA053DD4DC
:101530008A0543D44A0549D457E000BF326863683E
:1015400022F003021A4332608A07E5D53268A368A5
:1015500022F00C021A4332604A07DFD53268E36892
:1015600022F030021A4332600A07D9D53268236963
:1015700022F0C0021A4332608A06D3D5326863690A
:1015800022F440621A4332604A06CDD53268A3691C
:1015900022F440521A4332600A06C7D53268E36922
:1015A00022F440421A433260CA05C1D53268236A28
:1015B00022F440321A4332608A05BBD53268636A2E
:1015C00022F440221A4332604A050ED53268A36ADB
:1015D00022F440121A43B3F5801F326005D156F849
:1015E0007C2C42F4801246F87C2C0A050ED5326819
:1015F000E36A22F440021A43B3F5800F326005D14A
:1016000056F87C2C42F4801246F87C2CCA040ED585
:101610003268236B22F040721A43B3F1807F32604C
:1016200005D156F87C2C42F4801246F87C2C8A04B2
:101630000ED53268636B22F040621A43B3F1006F3B
:10164000326005D156F87C2C42F4801246F87C2C8E
:101650004A040ED53268A36B22F040621A43B3F1FC
:10166000006F326005D156F87C2C42F4801246F8A7
:101670007C2C09040ED53168E26B21F040511143F6
:10168000B2F1805F316005D156F87C1C41F48031A5
:1016900046F87C1C02B0BDE8F08100BFB06810F4D1
:1016A000407010D0216C88420BD0B068B16820F433
:1016B000407041F48031B160B16821F48031B16093
:1016C000B060C0070CD1B068216C20F440700843B2
:1016D000B0600020B8F1000F3FF519AF11E700BF6F
:1016E000FFF79CFC054641F2883700BFB0688007D1
:1016F000E9D4FFF793FC401BB842F7D9FDE60000A0
:101700002DE9F047002863D042F2000AC4F2020A31
:101710000446DAF800000D4600F00F0081420CD9B3
:10172000DAF8000020F00F002843CAF80000DAF8C9
:10173000000000F00F00A8424AD1216841F20808D9
:10174000C807C4F2020803D1880740F1D080B5E091
:10175000606858F8082C022838D003283CD1920140
:1017600036D5D8F80420D8F8043042F20046C3F346
:10177000031302F00302D8F804700133C0F2F40638
:10178000032A04BF41F20026C0F27A06B6FBF3F248
:10179000D8F80430C7F306277A43C3F3416302271E
:1017A00007EB4303B2FBF3F24BF20043C0F2C44336
:1017B0009A4259D9D8F8002012F0F00F49D0890781
:1017C00052D5A16800294FD143E000BF910305D451
:1017D0000120BDE8F08700BF5105F9D5D8F8001009
:1017E00001F00C0104293FD0D8F8001001F00C01E1
:1017F000082939D0D8F8001001F00C010C2933D198
:10180000D8F80410D8F8042042F20047C2F30312BB
:1018100001F00301D8F804300132C0F2F4070329C3
:1018200004BF41F20027C0F27A07B7FBF2F1D8F803
:101830000420C3F306235943C2F34162022303EB9E
:101840004202B1FBF2F14BF20042C0F2C4429142BB
:101850000AD9D8F80010082262F307114FF00109E5
:10186000C8F8001002E000BF4FF00009D8F80010DF
:1018700021F003010843C8F80000FFF7CFFB06463C
:1018800041F28837D8F80000616800F00C00B0EB36
:10189000810F07D0FFF7C2FB801BB842F2D90320AB
:1018A000BDE8F0872168880708D4B9F1000F1ED081
:1018B000D8F8000020F0F00017E000BF480705D579
:1018C000D8F8000040F4E060C8F80000080706D52A
:1018D000D8F80000072262F30D20C8F80000D8F8FD
:1018E0000000A26820F0F0001043C8F80000DAF809
:1018F000000000F00F0085421BD2DAF8000020F053
:101900000F002843CAF80000FFF788FB064641F2A3
:10191000883700BFDAF8000000F00F00A84207D0B7
:10192000FFF77CFB801BB842F4D90320BDE8F087A9
:101930002168480707D5D8F80000E26820F4E06085
:101940001043C8F80000080708D5D8F8000021693E
:1019500020F4605040EAC100C8F80000D8F8000048
:1019600042F20041C0F2F40100F00C0004280846E5
:101970002DD0D8F8000000F00C00082841F200201B
:10198000C0F27A0023D0D8F8002002F00C020C2A12
:101990001CD1D8F80420D8F8043002F00302C3F3B5
:1019A0000313D8F804700133032A08BF0146B1FBC2
:1019B000F3F0D8F80410C7F30627C1F341610222FF
:1019C000784302EB4101B0FBF1F000E00020D8F8D1
:1019D000001042F69E42C1F30311C0F60002515CB2
:1019E00040F2080201F01F0120FA01F140F200006C
:1019F000C2F200000068C2F200021160BDE8F047C8
:101A0000FFF738BC002804BF012070472DE9F041E2
:101A100082B00446007841F20006C007C4F2020614
:101A20001ED1207880073DD42078000764D4207828
:101A3000400700F187802078800600F1D980E569B1
:101A4000002D00F04282B06800F00C000C2840F03D
:101A50003181012D40F08E81012002B0BDE8F0817E
:101A6000B06800F00C01F068082961D0032281F011
:101A70000C0122EA00000844B0FA80F0400957D176
:101A800061683068B1F5803F07D0B1F5A02F40F014
:101A9000E38040F480203060306840F48030306073
:101AA000E4E000BFB068F16800F00C00042871D0D9
:101AB00001F0030180F00C0081F002010844B0FA4B
:101AC00080F0400966D1E1683068002900F0E080CC
:101AD00040F480703060FFF7A1FA05463068400599
:101AE00000F10A81FFF79AFA401B0228F6D9032079
:101AF00002B0BDE8F08100BF6169D6F8940000290A
:101B000000F0948040F00100C6F89400FFF786FAD8
:101B1000054600BFD6F8940080073FF588AFFFF771
:101B20007DFA401B0228F5D9032002B0BDE8F08100
:101B3000306880037FF575AF606800287FF471AF6F
:101B40003EE000BFB06D5FEAC00808D4B06D40F061
:101B50008050B065B06D00F080500190019847F260
:101B60000007C4F200073868C0052DD4386840F477
:101B700080703860FFF752FA054600BF3868C0052C
:101B800022D4FFF74BFA401B0228F7D9032002B0FA
:101B9000BDE8F0813068400501D5E06880B170682B
:101BA000216920F0FE4040EA0160706040F20000D0
:101BB000C2F200000068FFF75DFB00283FF434AF7D
:101BC000012002B0BDE8F081A168D6F8900001299B
:101BD00008D0052940F0AE8040F00400C6F890001F
:101BE000D6F8900040F00100C6F89000AEE000BFCB
:101BF000A169D6F89800002900F0868040F0010025
:101C0000C6F89800FFF70AFA054600BFD6F8980014
:101C100080073FF514AFFFF701FA401B02284FF091
:101C20000300F3D902B0BDE8F08100BF20F001004D
:101C3000C6F89400FFF7F2F9054600BFD6F8940005
:101C400080077FF5F4AEFFF7E9F9401B0228F5D9CC
:101C5000032002B0BDE8F08120F4803030603068AD
:101C6000002920F48020306000F0BE80FFF7D6F914
:101C7000054600BF306880033FF5D3AEFFF7CEF9CD
:101C8000401B6428F6D9032002B0BDE8F08100BFF4
:101C900020F480703060FFF7C1F9054630684005D8
:101CA0007FF5C2AEFFF7BAF9401B02284FF00300E0
:101CB000F4D9B7E7306820F080703060FFF7AEF9F4
:101CC000022D05460CD100BF3068800140F1B8807C
:101CD000FFF7A4F9401B02284FF00300F4D9A1E755
:101CE0003068800140F1EA80FFF798F9401B022834
:101CF0004FF00300F4D995E77068216920F0FE40A9
:101D000040EA016070608FE620F00100C6F898009C
:101D1000FFF784F9054600BFD6F8980080077FF5E5
:101D20008EAEFFF77BF9401B02284FF00300F3D97A
:101D300078E700BF20F00100C6F89000D6F89000C8
:101D4000002920F00400C6F890005DD0FFF766F986
:101D5000054641F2883700BFD6F89000800765D469
:101D6000FFF75CF9401BB842F6D9032002B0BDE88A
:101D7000F08100BFF068216A00F003028A427FF41C
:101D80001FAF626A6FF00F0300F0F00103EB021265
:101D900091427FF415AFA16A00F4FE42B2EB012F2D
:101DA0007FF40EAFE16A00F07842B2EBC16F7FF4CE
:101DB00007AF226B0023CFF6E07303EA025200F470
:101DC000C001A2F5001291427FF4FAAE616B4FF0B0
:101DD0007E4202EA016100F0C06001F17E4188426A
:101DE0007FF4EEAE71E000BFFFF718F9054600BFC3
:101DF000306880037FF515AEFFF710F9401B6428AB
:101E00004FF00300F4D90DE7FFF708F9054641F25A
:101E1000883700BFD6F89000800707D5FFF7FEF897
:101E2000401BB8424FF00300F4D9FBE6B8F1000FB5
:101E30003FF501AEB06D20F08050B065FBE500BF0E
:101E4000F06848F20C01C0F29F1104F1200700EA8B
:101E5000010C8ECF6FF00F00D4E90C5400EB021090
:101E60000022CFF6E07241EA0C0102EA0552084373
:101E7000A2F500124FF07E4540EA032005EA046512
:101E8000104305F17E4540EAC7602843F0603068A2
:101E900040F080703060F06840F08070F060FFF7D4
:101EA000BDF80446306880010FD4FFF7B7F8001B77
:101EB00002284FF00300F5D9B4E600BFF0684FF6F2
:101EC000FC71CFF6EE610840F060002002B0BDE882
:101ED000F0810000411E0020B0EB116F1CBF0120FB
:101EE00070474EF21002CEF2000251604EF62351BE
:101EF000CEF20001F0230B70072190601160704753
:101F000090F83C20012A04BF02207047B0B5D1E907
:101F10000232D1E900CE22F47C5223F4705343EA1A
:101F2000020448F2FF73CEF6F0730EEA0302224376
:101F300003F5006404EA0C0442EA040C0C6903F59E
:101F4000C05222404C6942EA0C02224303F560541D
:101F500022400C6B03F5F04323401A438B6940F297
:101F6000000CCC69CEF6FF7C0CEA034C14430268EB
:101F700043F20043C4F201039A4244EA0C0305D041
:101F800042F60044C4F20104A24217D14FF6FF7496
:101F9000CDF60F4403EA040ED1E9084CD1E90A3129
:101FA0000025CDF6F04505EA035343EA0E0324F07D
:101FB00008552B432CF000552B430B430021536451
:101FC00080F83C100020B0BD90F83C20012A4FF072
:101FD00002024AD070B580F83D20026843F2004CFE
:101FE00054689368C4F2010C42F6004E6245C4F294
:101FF000010E01D0724503D14D6824F470042C43C6
:102000004FF68F75CFF6FF550E682C4042F6FF3520
:10201000C4F201053443AA4254600FDCB2F1804F90
:1020200016D040F20046C4F20006B24210D040F68C
:102030000006C4F20006B2420AD00EE0724507D094
:1020400044F20006C4F20106B24201D0624504D156
:10205000896823F08003194391600121002280F8F0
:102060003D1080F83C20BDE87040104670470000ED
:10207000002804BF0120704710B5044690F83D00C9
:1020800028B9002084F83C00204600F023F8022004
:1020900084F83D002068211D00F006FD012084F831
:1020A000480084F83E0084F83F0084F8400084F83B
:1020B000410084F8420084F8430084F8440084F826
:1020C000450084F8460084F8470084F83D0000206D
:1020D00010BD0000006842F60041C4F201018842D0
:1020E00018BF704781B041F26000C4F2020001687D
:1020F00041F400610160006800F400600090009805
:1021000001B0704790F83C20012A4FF0020200F025
:10211000AC8080B580F83D20D0F800C08822DCF883
:102120000830CFF6CE721A40CCF808200B686F2B1F
:1021300010DD1F22C0F21002934237DCB3F5005FBE
:102140006EDA702B00F0B680B3F5805F00F084800B
:10215000D8E000BF2F2B35DD4F2B39DC302B6FD073
:10216000402B40F0CF80D1F804E0C968DCF8203083
:10217000DCF8202022F00102CCF82020DCF8182026
:1021800022F0F00242EA011123F00A0242EA0E02B2
:10219000CCF81810CCF82020DCF808104FF6887224
:1021A000CFF6CF721140473154E000BF3F21C0F25B
:1021B00010018B423ADC2021C0F210018B423FD04B
:1021C000302139E0E3B3102B3AD0202B38D099E0FE
:1021D000502B4DD0602B40F09580D1F804E0C968B9
:1021E000DCF82030DCF8202022F01002CCF820208F
:1021F000DCF8182022F4704242EA013123F0A002F8
:1022000042EA0E12CCF81810CCF82020DCF80810A6
:102210004FF68872CFF6CF72114067311AE000BFD7
:102220005CD0B3F1101F0BD06CE000BF4021C0F2B6
:1022300010018B4204D07021C0F210018B4261D199
:10224000DCF808104FF68872CFF6CF7211401943B0
:1022500041F00701CCF808100022012180F83D1060
:10226000002180F83C10BDE880401046704700BF58
:10227000D1F804E0C968DCF82030DCF8202022F036
:102280000102CCF82020DCF8182022F0F00242EA0B
:10229000011123F00A0242EA0E02CCF81810CCF821
:1022A0002020DCF808104FF68872CFF6CF7211406C
:1022B0005731CFE7D1E901E3C968DCF8082043EAE8
:1022C0000E0322F47F4243EA01211143CCF80810A7
:1022D000DCF8081041F07701BCE700BFD1E901E369
:1022E000C968DCF8082043EA0E0322F47F4243EA7F
:1022F00001211143CCF80810DCF8081041F48041AA
:10230000A8E700BF0122A8E790F83C30012B04BFEA
:10231000022070474FEAB202052A00F28B81F0B525
:10232000DFE812F0060006017600BE0046004E010E
:102330000268146A136AA2F1804523F00103136254
:102340005368D2F818C08E68A5F59635D1F800E02C
:1023500024F002044FEAB525072D44EA06040AD802
:102360000126AE4016F0E50F1FBFCE6824F00C0426
:1023700026F004063443072D0BD8012606FA05F58E
:1023800015F0E50F1FBFD1E9055623F440732B4329
:1023900033434FF68C75CFF6FE750CEA050646EA18
:1023A0000E065360966149685163146239E100BFBB
:1023B0000268D2F820C0136AA2F1804623F4803369
:1023C0001362A6F596365368156D0C68D1F808E0CF
:1023D0004FEAB626072E0AD8012707FA06F616F0A6
:1023E000E50F1EBF4E6923F4803343EA06234FF600
:1023F0008C76CFF6FE760336354045EA0406536008
:1024000016652CF40037496847EA0E43916407E1EA
:10241000026843F20045146A136AC4F2010523F40A
:10242000807313625368D2F81CC0AA428D68D1F839
:1024300000E024F4007444EA052405D042F6004587
:10244000C4F20105AA4207D1CD6840F2FF462D0231
:1024500024F44064B5432C43A2F18045A5F596359C
:102460004FEAB525072D0CD8012606FA05F515F01B
:10247000E50F1FBFD1E9055623F44053354343EA26
:1024800005134FF68C75CFF6FE750CEA050646EA85
:102490000E065360D6614968D1631462C1E000BF83
:1024A000026843F20045146A136AC4F2010523F47A
:1024B000805313625368D2F81CC0AA428D68D1F8C9
:1024C00000E024F4005444EA053405D042F6004507
:1024D000C4F20105AA4207D1CD6844F6FF762D0368
:1024E00024F44044B5432C43A2F18045A5F596352C
:1024F0004FEAB525072D0CD8012606FA05F515F08B
:10250000E50F1FBFD1E9055623F44043354343EAA5
:10251000851348F6FF45CFF6FF650CEA050646EA47
:102520000E265360D66149681164146279E000BFD9
:10253000026843F20045146A136AC4F2010523F0ED
:10254000100313625368D2F818C0AA428D68D1F8FC
:1025500000E024F0200444EA051405D042F60045CA
:10256000C4F20105AA4207D1CD686FF0400624F0FD
:10257000C00406EA05152C43A2F18045A5F5963561
:102580004FEAB525072D0CD8012606FA05F515F0FA
:10259000E50F1FBFD1E9055623F44063354343EAF5
:1025A000850348F6FF45CFF6FF650CEA050646EAC7
:1025B0000E265360966149689163146231E000BF52
:1025C0000268D2F820C0136AA2F1804623F4801377
:1025D0001362A6F596365368156D0C68D1F808E0BD
:1025E0004FEAB626072E0AD8012707FA06F616F094
:1025F000E50F1EBF4E6923F4802343EA862348F685
:10260000FF46CFF6FF6606F54076354045EA0426DC
:102610005360166549682CF4001747EA0E53D164DD
:1026200013620021BDE8F040002280F83C200846FB
:10263000704700BF0121002280F83C200846704707
:10264000002804BF0120704710B5044690F83D00F3
:1026500028B9002084F83C00204600F023F802202E
:1026600084F83D002068211D00F01EFA012084F846
:10267000480084F83E0084F83F0084F8400084F865
:10268000410084F8420084F8430084F8440084F850
:10269000450084F8460084F8470084F83D00002097
:1026A00010BD000070470000FEE7000010B58CB0C0
:1026B00040F27400C2F200004FF0A04100244FF439
:1026C0004032042380E816000121CDE90A44CDE917
:1026D0000744CDE90544CDE90344CDE90144C0E90F
:1026E0000344C0E905438483016280F82440C0E9C3
:1026F0000B4480F83840C46380F84040FEF78EF801
:10270000002818BFFDF756FE40F27400C2F2000028
:1027100009A90994FDF754FE002818BFFDF74AFEE9
:102720000220C0F23040019006207F21029000205C
:10273000049104210390CDE9051040F27400C2F227
:10274000000001A9FDF79CFE002818BFFDF732FE2E
:102750000CB010BDB0B588B040F2E00040F20011FE
:10276000C2F20000C5F2000100244FF440320425FB
:1027700080E816000121CDE90644C0E90344C0E920
:1027800005458483016280F82440C0E90B4480F849
:102790003840C46380F84040FEF740F8002818BF76
:1027A000FDF708FE0420C0F6600000900620CDE989
:1027B00001047F20CDE9030540F2E000C2F20000F1
:1027C00069460594FDF75CFE002818BFFDF7F2FD91
:1027D00008B0B0BD80B540F24C1046F20041C2F2E4
:1027E0000000C4F200010022C0E900121021012300
:1027F000C0E90222C0F80F20C0E90513C0E9073381
:10280000C0E90933C0E90B33C0E90D22C263FEF70A
:10281000A9F9002808BF80BDBDE88040FDF7CABD0A
:1028200070B586B0002541F24C000595CDE9035501
:10283000CDE90155C4F20200016840F2004441F0C4
:10284000010101600168C4F6000401F0010100917A
:1028500000990168002241F00201016000684FF414
:10286000007100F002000090009820464FF40076BE
:10287000FEF7CEFB0120CDE9020501A92046019615
:102880000495FEF7E3FA06B070BD000080B540F293
:10289000B01045F20041C2F20000C4F2000143F65C
:1028A00058520023C0F250024FF0010C80E80E1085
:1028B000C0E90433C0E906330362FEF7FFFB0028DA
:1028C00018BFFDF777FD40F2B010C2F20000002102
:1028D000FEF7AAFB002818BFFDF76CFD40F2B01010
:1028E000C2F200000021FEF7C5FB002808BF80BD32
:1028F000BDE88040FDF75EBD70B5A2B042F6004570
:10290000002401A83421C4F201051B94CDE9194427
:10291000CDE91644CDE91444CDE91244CDE9104483
:10292000CDE90E44FDF7DEFC40F20420C2F20000C7
:102930004FF6FF71C0E90054C0E90241C0E9044408
:102940008461FFF795FB002818BFFDF733FD4FF4B6
:102950008050189040F20420C2F2000018A9FFF73E
:10296000D1FB002818BFFDF725FD40F20420C2F27C
:102970000000FFF765FE002818BFFDF71BFD40F2C1
:1029800004200024C2F2000015A9CDE915441794D3
:10299000FFF71AFB002818BFFDF70CFD40F20420DA
:1029A000C2F200000EA900221494CDE91244CDE930
:1029B0001044CDE90E44FFF7A7FC002818BFFDF72F
:1029C000F9FC40F20420C2F200000EA90422FFF735
:1029D0009BFC002818BFFDF7EDFC40F20420C2F27A
:1029E00000000EA90822FFF78FFC002818BFFDF792
:1029F000E1FC00264FF4005040F20424CDE9060625
:102A00004FF00070C2F20004CDE90A0601A9204689
:102A10000596CDE90366CDE90166CDE90866CDE905
:102A20000C66FFF76DFA002818BFFDF7C3FC20689D
:102A30002196A842CDE91F661E961D9602D022B0AF
:102A400070BD00BF41F24C00C4F20200016841F0C9
:102A50000101016000681DA900F001001C901C9894
:102A60004FF4E0601D9002201E900020CDE91F0071
:102A7000062021904FF09040FEF7E8F922B070BD9B
:102A8000FEE70000FEE7000070470000704700000E
:102A9000FEF7D2BB4EF68850CEF20000016841F43A
:102AA000700101607047000040F2FF7C0268C4F2D0
:102AB000000C604524DD40F60003C4F20003984298
:102AC00027D043F20043C4F20103984221D042F6DA
:102AD0000043C4F2010398421BD043F2FF33C4F217
:102AE000010398421FDC604530DCB0F1804F47D0D5
:102AF00040F20043C4F20003984241D044E000BFDA
:102B0000B0F1804F05D040F20043C4F20003984278
:102B1000E3D14B6822F070021A4343F2FF33C4F250
:102B200001039842DFDD44F2FF33C4F2010398420F
:102B30001ADC43F20043C4F20103984220D044F26D
:102B40000003C4F2010398421AD01DE040F60003CE
:102B5000C4F20003984213D042F60043C4F20103CA
:102B600098420DD010E000BF44F60003C4F2010308
:102B7000984205D044F20043C4F20103984203D1C5
:102B8000CB6822F440721A4380B54B6922F0800E64
:102B90008A6843EA0E03D1F800C00360C262A0F164
:102BA0008042A2F596324FEAB222072AC0F828C026
:102BB000BDE8804007D8012303FA02F212F0E50FC6
:102BC0001CBF09690163012141610169C90708BF8F
:102BD0007047016921F0010101617047FEE70000C3
:102BE00094B0FEF737FB00240020CDE90B44CDE97B
:102BF0000944CDE90744FEF7BBFB4FF4807109910E
:102C000040210A91042102200F9155210690CDE91F
:102C10000D00CDE91010CDE9120006A8FEF7F2FE76
:102C200020B1EFF3108072B6FEE700BF0F200190D5
:102C30000320CDE9020401A80421CDE90444FEF7F4
:102C40005FFD28B1EFF3108072B600BFFEE700BF52
:102C5000FFF7E6FDFFF72AFDFFF7BCFDFFF716FEC5
:102C6000FFF74AFEFFF776FD40F20044C4F6000489
:102C700020464FF40071FEF7C3F94FF4FA70FDF7E8
:102C80005DFFF5E7F1EE100A4FF6FF71C0F2C031BB
:102C900020EA010040F04070E1EE100A70470000A9
:102CA00000000000000001020304060708090000FC
:102CB000D02C000800000020100000003C0200089A
:102CC000E02C000810000020480800005C0200080A
:102CD00010000000010000000024F40000000000CB
:04000005080001D915
:00000001FF
